:020000040800F2
:1000000058080020D90100084F120008A710000866
:100010004D120008090300081F1900080000000025
:100020000000000000000000000000005312000863
:100030000B030008000000005112000855120008D0
:10004000F3010008F3010008F3010008F3010008C0
:10005000F3010008F3010008F3010008F3010008B0
:10006000F3010008F3010008F3010008F3010008A0
:10007000F3010008F3010008F3010008F301000890
:10008000F3010008F3010008F3010008F301000880
:10009000F3010008F3010008F3010008F301000870
:1000A000F3010008F3010008F3010008F301000860
:1000B000F3010008F3010008F3010008F301000850
:1000C000F3010008F3010008F3010008F301000840
:1000D000F3010008F3010008F3010008F301000830
:1000E000F3010008F3010008F3010008F301000820
:1000F000F3010008F3010008F3010008F301000810
:1001000000000000F3010008F3010008F3010008FB
:100110000000000000000000F3010008F3010008E7
:10012000F3010008F3010008F3010008F3010008DF
:10013000F3010008F3010008F3010008F3010008CF
:10014000F3010008F3010008F3010008F3010008BF
:10015000F3010008F3010008F3010008F3010008AF
:10016000F3010008F3010008000000000000000097
:10017000000000000000000000000000000000007F
:10018000F3010008F3010008000000000000000077
:10019000F3010008F3010008000000000000000067
:1001A000000000000000000000000000000000004F
:1001B000F30100080000000000000000F301000847
:1001C000F3010008DFF80CD000F08CF8004800477D
:1001D0006119000858080020064880470648004773
:1001E000FEE7FEE7FEE7FEE7FEE7FEE7FEE7FEE7E7
:1001F000FEE7FEE7F5120008C50100082DE9F05FF3
:100200000546002092469B46884606468146402485
:100210001BE0284641464746224600F053F8534625
:100220005A46C01A914110D311461846224600F092
:100230003AF82D1A67EB01084F46224601200021AB
:1002400000F031F817EB00094E41201EA4F1010423
:10025000DFDC484631462A464346BDE8F09F40EA87
:1002600001039B0703D009E008C9121F08C0042A34
:10027000FAD203E011F8013B00F8013B521EF9D21B
:100280007047D2B201E000F8012B491EFBD2704743
:100290000022F6E710B513460A4604461946FFF752
:1002A000F0FF204610BD202A04DB203A00FA02F1BC
:1002B000002070479140C2F1200320FA03F3194354
:1002C00090407047202A04DB203A21FA02F00021F6
:1002D000704721FA02F3D040C2F120029140084356
:1002E00019467047064C074D06E0E06840F00103F0
:1002F00094E8070098471034AC42F6D3FFF766FF46
:10030000CC190008EC190008FEE7704770470000A0
:1003100070B5044600F0E6F80546601C02D00448BB
:100320000078044400F0DEF8401BA042FAD370BD10
:10033000000000202DE9F84FDFF874B100224FF0E3
:1003400001084FF0030A4FF00F090BF1040E00BF34
:100350000B6808FA02F42340A3426ED14D68022DC7
:1003600001D0122D0ED1D50800EB850CDCF8205001
:100370005607F70E09FA07F6B5430E69BE402E433D
:10038000CCF82060066855000F790AFA05FC07F0E2
:10039000030726EA0C06AF40374307604E68012E7C
:1003A00005D0022E03D0112E01D0122E0ED1866858
:1003B000CF6826EA0C06AF40374387604668A643FD
:1003C0000C79C4F30014944034434460C4688E68CC
:1003D00024EA0C04AE402643C6604C68E40060D5B5
:1003E000344C256845F480452560246822F00305D7
:1003F00004F480440094304C2E19D6F80848950730
:100400002F0F09FA07F5AC432C4DA84201D1002566
:100410001FE02B4DA84201D101251AE0294DA84229
:1004200001D1022515E0284DA84201D1032510E095
:10043000264DA84202D104250BE032E0244DA8420B
:1004400001D1052505E0234DA84201D1062500E094
:100450000725BD402543C6F80858DBF800405D4637
:100460004E689C43F60300D51C432C60DEF8004028
:1004700075464E689C43B60300D51C432C600C4D5A
:1004800008352C684E689C43F60200D51C432C604E
:10049000074D0C352C684E689C43B60200D51C43B2
:1004A0002C60521C102AFFF453AFBDE8F88F0000F7
:1004B000003C01404438024000300140000002404E
:1004C0000004024000080240000C024000100240FC
:1004D00000140240001802400AB18161704709040B
:1004E000FBE7000001488068704700000000002022
:1004F0000248816802781144816070470000002042
:100500000B4810B5016841F400710160016841F4C5
:1005100080610160016841F480710160032000F096
:1005200061F8002000F006F800F024F8002010BD6B
:10053000003C024070B50D4D04464FF47A712878A6
:10054000B1FBF0F00A490968B1FBF0F000F0D4FC0F
:1005500048B9102C07D200222146501E00F022F884
:1005600000206C6070BD012070BD00000000002004
:100570000C0000200A4808B5016841F48041016080
:10058000006800F4804000900548001F016841F0B9
:1005900080510160006800F08050009008BD0000AC
:1005A00044380240F0B40E4B1B680C46C3F30223E0
:1005B000C3F10705042D00D90425191D072901D20F
:1005C000002300E0DB1E012606FA05F1491E21404A
:1005D00099409E40761E16403143F0BC01F0A0B910
:1005E0000CED00E0064900F0070208684FF6FF0333
:1005F000184040EA0220034A104308607047000098
:100600000CED00E00000FA0501220168C0F8FC23AF
:10061000002280F8F423886940F000608861486D0A
:10062000024A104348650020704700000300001094
:100630002DE9F0418AB0040005D094F8BD03266886
:10064000002520B108E001200AB0BDE8F08184F85F
:10065000BC53204600F064F8032084F8BD03F06B1F
:10066000C00500D42561206801F01AF904F11001D9
:10067000282288466846FFF7F2FD94E80F0000F054
:10068000EBFF0226C8BB0021206801F031F90020F1
:1006900001270EE0C0EBC00104EB810181F83D7041
:1006A00001F83C0FC880CD708D60CD60401CC0B299
:1006B0004D6161688142EDD8002011E0C0EBC001BE
:1006C00004EB810181F8FD5181F8FC0181F8FF51B3
:1006D000C1F80452C1F80852401CC0B2C1F810520F
:1006E00061688142EAD8282241466846FFF7B7FD93
:1006F00094E80F0001F012F810B184F8BD63A2E78E
:1007000084F8385084F8BD73606A012802D120460D
:10071000FFF77AFF206800F0F5FF002094E7000063
:1007200030B587B0044614216846FFF7B1FD206854
:10073000B0F1A04F30D119480024016841F0010107
:1007400001600068164D00F0010005904FF4E8507C
:1007500000900220CDE90104032003900A200490B8
:1007600069462846FFF7E6FD6815CDE900046946AD
:1007700028460294FFF7DEFD0848001D016841F09D
:100780008001016005481430016841F48041016036
:10079000006800F48040059007B030BD303802405A
:1007A000000002402DE9F84F0446007800268D4DE8
:1007B000C00708D02868616920F0C060084328603D
:1007C000606900B901262078800708D52868A169EA
:1007D00020F0C05008432860A06900B901262078A5
:1007E0004FF0000A00074FF0010B55D57D484C38FB
:1007F000016841F0805101600068DFF8EC8100F091
:1008000080500090D8F8001041F48071C8F80010B2
:10081000FFF768FE074604E0FFF764FEC01B0228EE
:100820006FD8D8F80000C005F6D56E4F1C3F386869
:1008300010F440701FD0A18B01F4407181421AD096
:10084000386820F440716948C0F800B0C0F800A0D2
:1008500039603868C0070ED0FFF744FE804641F289
:10086000883905E0FFF73EFEA0EB0801494548D86E
:1008700038688007F6D5E1695A48C1F30122843807
:10088000032A36D0016821F4F81101603868A18B81
:10089000C1F30B01084338602078DFF8549140071A
:1008A00003D594F83810C9F8E0112078C1065148F2
:1008B00005D50168626A21F4400111430160217885
:1008C0004FF00067890609D50168A26A21F000612E
:1008D00011430160A16AB94200D10126217849067D
:1008E00005D50168226A21F080511143016066B983
:1008F00008E00268404B22F4F81219400A430260F3
:10090000C4E754E02068802857D15046DFF8ECA0B7
:10091000CAF86800FFF7E6FD324E80468C3E05E0DF
:10092000FFF7E0FDA0EB0800022840D83068000186
:10093000F6D4616BC9F8D81020683149C20701D0DC
:1009400062697AB1820701D5A2695AB1820602D5DD
:10095000A26ABA4206D040060FD5206A68B9A06ADA
:10096000B8420AD1D4E9010240EA8210227B237CFA
:10097000120642EA037210430860207800060AD586
:10098000D4E9010240EA8210227B237C120642EA6B
:10099000037210430860CAF868B0FFF7A3FD07466A
:1009A00008E000BFFFF79EFDC01B022802D903200C
:1009B000BDE8F88F30680001F4D52088C00505D562
:1009C0002868E16A20F000400843286020888005FC
:1009D00005D52868216B20F40040084328600020DA
:1009E000E6E700008C38024000700040400E4742AD
:1009F0000010474294380240FFFCFF0F00004742BE
:100A0000843802402DE9F0470E46050065D0DFF836
:100A10001481D8F80000F7B200F00F00B04207D2FE
:100A200088F80070D8F8000000F00F00B04254D1F0
:100A300028683D4C810712D5400703D5206840F453
:100A4000E05020602878000703D5206840F460401B
:100A500020602068A96820F0F00008432060287812
:100A6000C0072DD0304968680839012812D0022803
:100A700013D0032811D00968890700292DDA2168CD
:100A800021F0030101432160FFF72CFD814641F273
:100A9000883A0EE009688903EFE709688901ECE705
:100AA000FFF720FDA0EB0901514502D90320BDE865
:100AB000F0872068696800F00C00B0EB810FEFD17F
:100AC000D8F80010404601F00F01B14207D9077075
:100AD000006800F00F00B04201D00120E7E728785D
:100AE000400705D52068E96820F4E05008432060FD
:100AF0002878000706D52068296920F4604040EA7C
:100B0000C100206000F036F82168084AC1F30311E3
:100B1000515CC840064908600020FFF70BFD00202B
:100B2000C5E70000003C024008380240B419000844
:100B30000C0000200448054900680968044AC1F314
:100B40008221515CC84070470C00002008380240E8
:100B5000C41900080448054900680968044AC1F33B
:100B60004231515CC84070470C00002008380240F8
:100B7000C4190008154810B5006810F00C0214489C
:100B800013D04110042A0FD0082A0ED10F4C241F75
:100B90002268236802F03F025B0207D52068C0F399
:100BA0008810A0FB010106E0084610BD2168C1F3D2
:100BB0008811A1FB00010023FFF720FB2168C1F38E
:100BC0000141491C4900B0FBF1F010BD083802405A
:100BD0000024F4002DE9F84F05460078DFF800B353
:100BE000C04CC0074AD0DBF800105846C1F3810161
:100BF000012908D00068C0F3810002280AD1201D15
:100C00000068400206D52068800337D56868002850
:100C100072D033E06868B0F5803F10D0B0F5A02FF7
:100C2000206810D020F480302060206820F48020DC
:100C300020606868A8B1FFF755FC06460DE0206803
:100C400040F48030F4E740F480202060F7E700BFF4
:100C5000FFF748FC801B64286FD820688003F7D515
:100C60000CE0FFF73FFC064605E000BFFFF73AFC4B
:100C7000801B6428F0D820688003F7D42878DFF838
:100C8000688280074FF0000940D5DBF80010584615
:100C900011F00C0F09D00068C0F3810002280BD1BD
:100CA0008F48001F0068400206D42068800715D5D1
:100CB000E868012820D111E0E868B8B10120C8F83F
:100CC0000000FFF70FFC064605E000BFFFF70AFC37
:100CD000801B0228C0D820688007F7D520682969C2
:100CE00020F0F80040EAC10020600FE0C8F8009052
:100CF000FFF7F8FB064606E0EFE000BFFFF7F2FB68
:100D0000801B022819D820688007F7D428780007AC
:100D100022D5734E754869696C3679B1012101603D
:100D2000FFF7E0FB074604E0FFF7DCFBC01B0228EF
:100D300003D830688007F7D50EE089E0C0F800904E
:100D4000FFF7D0FB074604E0FFF7CCFBC01B0228EF
:100D50007ED830688007F7D42878400768D5DFF858
:100D600080A100270AF1380ADAF80000C0000BD48D
:100D7000DAF8001041F08051CAF80010DAF80000EB
:100D8000012700F080500090594E3068C00510D403
:100D9000306840F480703060FFF7A4FB009005E0FD
:100DA000FFF7A0FB0099401A022851D83068C0050F
:100DB000F6D54B4EA868683601280FD00528306854
:100DC00010D020F001003060306820F00400306066
:100DD000A868B8B1FFF786FB00900FE0306840F0DC
:100DE0000100F4E740F004003060F7E7FFF77AFB1A
:100DF0000099411A41F28830814266D830688007F4
:100E0000F4D50EE0FFF76EFB009007E0FFF76AFBFA
:100E10000099411A41F28830814256D830688007E3
:100E2000F4D42FB1DAF8001021F08051CAF8001084
:100E3000A869D0B3DBF80010C1F3810102294CD0BE
:100E40000228484607D0C8F86000FFF74BFB00E0D7
:100E50003BE005463CE04746C8F86000FFF742FB30
:100E6000064604E0FFF73EFB801B02282DD82068D1
:100E70008001F7D4F5E907010843E9681D4A4908EC
:100E800002EB0141AA6841EA82110843297C40EA49
:100E90000160297D40EA01711148001F01600120B5
:100EA0003866FFF71FFB054605E014E0FFF71AFB65
:100EB000401B022809D820688001F7D50BE000BF4D
:100EC000FFF710FB401B022802D90320BDE8F88F72
:100ED00020688001F4D40020F8E70120F6E7000044
:100EE000083802400038024000004742800E474266
:100EF000007000400000FFFF10B5401EB0F1807F81
:100F000001D3012010BD4FF0E02460610F21601774
:100F100000F006FD0020A06107202061002010BD28
:100F200070B5040004D094F83900002510B106E033
:100F3000012070BD84F83850204600F023F82420AA
:100F400084F839002068C16821F40051C16020464E
:100F500000F0FAF92068016921F4904101612068EC
:100F6000416921F02A0141612068C16841F40051C2
:100F7000C160E563202084F8390084F83A0000203D
:100F800070BD000010B586B0044614216846FFF716
:100F90007FF913492068884220D11248016841F442
:100FA00000310160006800F4003005900D481038F1
:100FB000016841F0010101600068694600F001002C
:100FC00005900C2000900220019001200290032047
:100FD0000390072004900448FFF7ACF906B010BD59
:100FE0000044004040380240000002402DE9F84330
:100FF000044690F839001F4616460D46202850D169
:10100000A5B19EB194F8380001284AD0012084F897
:1010100038004FF00008C4F83C80212084F83900E3
:10102000FFF760FAA6848146E68426E00120BDE849
:10103000F883E08C401EE084A0684B46B0F5805FEA
:101040004FF000024FF080012046009703D000F0DF
:10105000D1FAE8B90DE000F0CDFAC8B928882168C6
:10106000C0F308004860206908B16D1C05E0AD1CA4
:1010700003E0216815F8010B4860E08C0028D8D106
:101080004B46002240212046009700F0B3FA08B1F9
:101090000320CCE7202084F8390084F83880002031
:1010A000C5E70220C3E7FEE72DE9F04387B014212E
:1010B0006846FFF7EDF842480024016841F004015A
:1010C0000160016801F004010591016841F08001AF
:1010D0000160016801F080010591016841F00101A2
:1010E0000160016801F001010591016841F0020110
:1010F0000160016801F002010591016841F00801F9
:101100000160016801F008010591016841F04001AA
:10111000016000682B4F00F040004FF481450590BE
:10112000002229463846FFF7D7F9DFF89C800022D5
:1011300040214046FFF7D0F9DFF890907E1500225D
:1011400031464846FFF7C8F9300100902048CDE904
:10115000010469464846FFF7EDF800950125CDE901
:101160000154694638460394FFF7E4F828020090DA
:101170000220CDE901040320039007200490694672
:101180001448FFF7D7F840200090CDE90154694694
:1011900040460394FFF7CEF88020CDE9000469466D
:1011A00040460294FFF7C6F80096CDE9015469461F
:1011B00048460394FFF7BEF807B0BDE8F08300008F
:1011C000303802400004024000180240000802408B
:1011D00000001110000C02400C4810B50A490160D3
:1011E0004FF4E1314160002181600C22C160C0E90F
:1011F00004128161C161FFF793FE002803D0BDE8AE
:101200001040FFF783B810BD0044004010000020DC
:101210000D4810B54FF0A041016006214160022247
:101220000021C0E9032182610122C0E90721C0E950
:101230000912C0E90B21FFF7FBF9002803D0BDE834
:101240001040FFF763B810BD50000020FEE7704764
:1012500070477047FFF74CB930B5A3B034216846EA
:10126000FFF716F814211CA8FFF712F83C210DA86F
:10127000FFF70EF81D480024016841F0805101601D
:10128000006800F0805021901948016841F4404105
:1012900001600068022500F4404021900120009088
:1012A0004FF4A02001906805CDE9065008204FF4C6
:1012B000C071CDE908010421CDE90A100C956846FA
:1012C000FFF788FC0F20CDE91C05E802CDE91E40A0
:1012D00003211CA82094FFF795FB202017940D9064
:1012E0000DA8FFF75FFA23B030BD00004038024080
:1012F000007000401048016841F4700101600F481F
:10130000016841F0010101600C4A002108321160BE
:1013100002680B4B1A400260031D0A4A1A600268F9
:1013200022F48022026005480C3001600249580610
:10133000803908607047000088ED00E00038024006
:10134000FFFFF6FE103000242DE9F041044600684E
:101350000169E26821F44051114301612169A068EB
:10136000E26908436169114322680843D16849F280
:101370000C6399430143D16020684169A26921F45B
:10138000407111434161E2696425B2F5004F97480D
:10139000974922684FF032083FD08A4201D08242FA
:1013A0007CD1FFF7D7FB00EBC00101EB00106168B7
:1013B0008900B0FBF1F6FFF7CDFB00EBC00101EBBC
:1013C000001061688900B0FBF1F0B0FBF5F06FF040
:1013D0001801484306EB800108EB0110B0FBF5F063
:1013E00000F0F006FFF7B6FB00EBC00101EB0010C8
:1013F00061688900B0FBF1F0B0FBF5F006EB001678
:10140000FFF7A8FB00EBC00101EB00106168890049
:10141000B0FBF1F7FFF79EFBD2E08A4201D0824297
:101420003DD1FFF797FB00EBC00101EB00106168B5
:101430004900B0FBF1F0B0FBF5F00601FFF78AFBC5
:1014400000EBC00101EB001061684900B0FBF1F74F
:10145000FFF780FB00EBC00101EB00106168490061
:10146000B0FBF1F0B0FBF5F06FF01801484307EB6B
:10147000800108EBC100B0FBF5F000F0F80006EBCE
:101480004006FFF767FB00EBC00101EB001061684D
:101490004900B0FBF1F7FFF75DFB3CE055E0FFF7DB
:1014A00049FB00EBC00101EB001061684900B0FB93
:1014B000F1F0B0FBF5F00601FFF73CFB00EBC001DB
:1014C00001EB001061684900B0FBF1F7FFF732FB58
:1014D00000EBC00101EB001061684900B0FBF1F0C6
:1014E000B0FBF5F06FF01801484307EB800108EB03
:1014F000C100B0FBF5F000F0F80006EB4006FFF786
:1015000019FB00EBC00101EB001061684900B0FB62
:10151000F1F7FFF70FFB00EBC00101EB0010616872
:101520004900B0FBF1F0B0FBF5F06FF01801484353
:1015300007EB800108EBC100B0FBF5F000F00700FD
:10154000216830448860BDE8F081FFF7F3FA00EBD2
:10155000C00101EB001061688900B0FBF1F6FFF7F4
:10156000E9FA00EBC00101EB001061688900B0FBF3
:10157000F1F0B0FBF5F06FF01801484306EB800185
:1015800008EB0110B0FBF5F000F0F006FFF7D2FA1F
:1015900000EBC00101EB001061688900B0FBF1F0C5
:1015A000B0FBF5F006EB0016FFF7C4FA00EBC00144
:1015B00001EB001061688900B0FBF1F7FFF7BAFAA0
:1015C00000EBC00101EB001061688900B0FBF1F095
:1015D000B0FBF5F06FF01801484307EB800108EB12
:1015E0000110B0FBF5F000F00F00A9E70014014076
:1015F000001001402DE9F041984617460E4604467A
:10160000069D1DE0681C1BD02DB1FEF76BFFA0EB03
:101610000800A84214D92068C16821F4D071C160C3
:101620002068416921F001014161202084F83900DE
:1016300084F83A00002084F838000320BDE8F081E7
:101640002068006836EA000004D00020B842D9D0F3
:101650000020F3E70120F9E770B5044606990A9ED9
:10166000049D0D98012916D0E06840F04000E0602C
:10167000204600F02BF8A16B1EB321F48031A1634A
:10168000012D07D1A16841F00601A160A16841F0D8
:101690002001A16070BDA16B21F48031A163E168DC
:1016A000094A1140E160E16821F44011E16001283C
:1016B00003D1E06840F48010E060204600F006F8B6
:1016C000DEE741F48031DAE7BFFFBDFF01220C49BC
:1016D00002E0521C8A420BD80369002BF9DA026936
:1016E00042F001020261012204E0521C8A4201D947
:1016F000032070470369DB07F7D100207047000023
:10170000400D030010B5D0F8041841F00201C0F8F4
:1017100004180320FEF7FCFD002010BD2DE9F04F5A
:101720000025DDE90BCB0E460446DDF84090099F0D
:101730002846294604EB8002C2F80411401C0F28F9
:10174000F8D32046A06BB9F1000F13D040F400127B
:10175000A26308468846C4F8000ED4F80018204654
:10176000C4F80018BCF1010F10D0D0F8001841F0F7
:10177000030110E020F40012A263206840F0400250
:101780002260206840F080022260E2E7D0F8001872
:101790000BB141F00101C0F80018102100F096F8DB
:1017A00000B10125204600F081F800B10125404636
:1017B000C4F81088C4F81488C4F81C8800214FF0BD
:1017C00000634FF090484FF67F3A14E004EB41126B
:1017D000D2F800C9BCF1000F06DA11B1C2F80089D5
:1017E00004E0C4F8003901E0C2F80009C2F81009A9
:1017F000C2F808A9491C8E42E8D8002115E000BFB4
:1018000004EB4112D2F800CBBCF1000F06DA11B1A3
:10181000C2F8008B04E0C4F8003B01E0C2F8000B02
:10182000C2F8100BC2F808AB491C8E42E8D8D4F8B5
:10183000101821F480722146C4F81028012F08D115
:10184000134AC1F83028D1F83018124A1143C4F8AD
:101850003018A0616FF0804060611FB9A06940F04E
:101860001000A061A0690C490843A061BBF1000F02
:1018700003D0A06940F00800A061B9F1010F03D1C5
:10188000A06906490843A0612846BDE8F08F000022
:10189000000180000300010000383C80040000408B
:1018A000816821F001018160002070470021102231
:1018B0000261054A491C914201D90320704703691E
:1018C000DB06F7D400207047400D030000222023E0
:1018D00043EA811101610549521C8A4201D9032062
:1018E000704703699B06F7D400207047400D030042
:1018F00010B5C26822F0C042C260012902D029B1ED
:10190000012010BDC16841F0005102E0C16841F002
:101910008041C1603220FEF7FBFC002010BDFEE7D5
:101920000907090E002804DB00F1E02080F800140C
:10193000704700F00F0000F1E02080F8141D7047A0
:1019400002E008C8121F08C1002AFAD17047704788
:10195000002001E001C1121F002AFBD170470000E6
:1019600086B0FEF7CDFDFFF777FCFFF79DFBFFF795
:1019700033FCFFF74DFC142208A16846FEF76FFC0C
:101980004FF47A7465102346132269460848FFF71E
:101990002DFB2846FEF7BCFCF5E700007468697370
:1019A000206973207465737420646174612E000073
:1019B00010000020000000000000000001020304ED
:1019C000060708090000000001020304EC190008E2
:1019D000000000201000000040190008FC19000859
:1019E0001000002048080000501900080100000005
:0C19F00010000000000000000024F400C3
:04000005080001C529
:00000001FF
