:020000040800F2
:1000000098040020A901000807100008C90E000884
:1000100005100008B5020008A9140008000000003F
:100020000000000000000000000000000B100008AD
:10003000B702000800000000091000080D100008B9
:10004000C3010008C3010008C3010008C301000880
:10005000C3010008C3010008C3010008C301000870
:10006000C3010008C3010008C3010008C301000860
:10007000C3010008C3010008C3010008C301000850
:10008000C3010008C3010008C3010008000000000C
:10009000000000000000000000000000C301000894
:1000A000C3010008C3010008C3010008C301000820
:1000B000ED100008C3010008C3010008C3010008D7
:1000C000C3010008C3010008C3010008C301000800
:1000D000C3010008C3010008C301000800000000BC
:1000E000C3010008C3010008C301000800000000AC
:1000F000000000000000000000000000C301000834
:1001000000000000C3010008C3010008C30100088B
:1001100000000000000000000000000000000000DF
:10012000C3010008C3010008C3010008C30100089F
:10013000C3010008000000000000000000000000F3
:10014000000000000000000000000000C3010008E3
:10015000C3010008C3010008C3010008C30100086F
:10016000C3010008C30100080000000000000000F7
:10017000000000000000000000000000000000007F
:1001800000000000C30100080000000000000000A3
:10019000C3010008DFF80CD000F07AF800480047EF
:1001A000E9140008980400200648804706480047E4
:1001B000FEE7FEE7FEE7FEE7FEE7FEE7FEE7FEE717
:1001C000FEE7FEE799100008950100082DE9F05FB1
:1001D0000546002092469B468846064681464024B6
:1001E0001BE0284641464746224600F041F8534668
:1001F0005A46C01A914110D311461846224600F0C3
:1002000028F82D1A67EB01084F46224601200021ED
:1002100000F01FF817EB00094E41201EA4F1010465
:10022000DFDC484631462A464346BDE8F09FD2B25D
:1002300001E000F8012B491EFBD270470022F6E7CF
:1002400010B513460A4604461946FFF7F0FF20464C
:1002500010BD202A04DB203A00FA02F1002070478A
:100260009140C2F1200320FA03F3194390407047F4
:10027000202A04DB203A21FA02F00021704721FAFB
:1002800002F3D040C2F12002914008431946704762
:10029000064C074D06E0E06840F0010394E80700D3
:1002A00098471034AC42F6D3FFF778FF28150008C2
:1002B00048150008FEE77047704700002DE9F84F29
:1002C000DFF860B100224FF001084FF0030A4FF051
:1002D0000F090BF1040E00BF0B6808FA02F423406B
:1002E000A3426ED14D68022D01D0122D0ED1D5083A
:1002F00000EB850CDCF820505607F70E09FA07F6DC
:10030000B5430E69BE402E43CCF820600668550008
:100310000F790AFA05FC07F0030726EA0C06AF403E
:10032000374307604E68012E05D0022E03D0112EF0
:1003300001D0122E0ED18668CF6826EA0C06AF4097
:10034000374387604668A6430C79C4F30014944091
:1003500034434460C6688C6826EA0C06AC403443DB
:10036000C4604C68E40056D52F4C256845F48045A0
:100370002560246822F0030504F4804400942B4C8B
:100380002E19D6F8084895072F0F09FA07F5AC4340
:10039000274DA84201D1002515E0264DA84201D1E4
:1003A000012510E0244DA84201D102250BE0234D88
:1003B000A84201D1032506E0214DA84202D104251F
:1003C00001E028E00725BD402543C6F80858DBF8C2
:1003D00000405D464E689C43F60300D51C432C60EC
:1003E000DEF8004075464E689C43B60300D51C43BA
:1003F0002C600C4D08352C684E689C43F60200D5E5
:100400001C432C60074D0C352C684E689C43B6028B
:1004100000D51C432C60521C102AFFF45DAFBDE8D0
:10042000F88F0000003C0140443802400030014099
:10043000000002400004024000080240000C02409C
:10044000001002400AB1816170470904FBE7000017
:10045000014880687047000004000020024881685D
:100460000278114481607047040000200B4810B5E9
:10047000016841F400710160016841F4806101602C
:10048000016841F480710160032000F071F80020E0
:1004900000F006F800F024F8002010BD003C0240F7
:1004A00070B50D4D04464FF47A712878B1FBF0F029
:1004B0000A490968B1FBF0F000F0E2FA48B9102CE3
:1004C00007D200222146501E00F032F800206C6056
:1004D00070BD012070BD000004000020100000204D
:1004E0000B4882B0016841F480410160006800F46B
:1004F000804000900648001F016841F08051016073
:10050000006800F080500090072002B000F030B882
:1005100044380240002809DB00F01F02012191400D
:100520004009800000F1E020C0F800117047000091
:10053000F0B40E4B1B680C46C3F30223C3F107054E
:10054000042D00D90425191D072901D2002300E03C
:10055000DB1E012606FA05F1491E214099409E4006
:10056000761E16403143F0BC00F09FBF0CED00E05A
:10057000064900F0070208684FF6FF03184040EAFA
:100580000220034A10430860704700000CED00E0B1
:100590000000FA052DE9F0470E46050065D0DFF8AA
:1005A0001481D8F80000F7B200F00F00B04207D273
:1005B00088F80070D8F8000000F00F00B04254D165
:1005C00028683D4C810712D5400703D5206840F4C8
:1005D000E05020602878000703D5206840F4604090
:1005E00020602068A96820F0F00008432060287887
:1005F000C0072DD0304968680839012812D0022878
:1006000013D0032811D00968890700292DDA216841
:1006100021F0030101432160FFF71AFF814641F2F7
:10062000883A0EE009688903EFE709688901ECE779
:10063000FFF70EFFA0EB0901514502D90320BDE8E9
:10064000F0872068696800F00C00B0EB810FEFD1F3
:10065000D8F80010404601F00F01B14207D90770E9
:10066000006800F00F00B04201D00120E7E72878D1
:10067000400705D52068E96820F4E0500843206071
:100680002878000706D52068296920F4604040EAF0
:10069000C100206000F036F82168084AC1F3031158
:1006A000515CC840064908600020FFF7F9FE0020B1
:1006B000C5E70000003C0240083802401015000861
:1006C000100000200448054900680968044AC1F385
:1006D0008221515CC8407047100000200838024059
:1006E000201500080448054900680968044AC1F358
:1006F0004231515CC8407047100000200838024069
:1007000020150008154810B5006810F00C021448B8
:1007100013D04110042A0FD0082A0ED10F4C241FE9
:100720002268236802F03F025B0207D52068C0F30D
:100730008810A0FB010106E0084610BD2168C1F346
:100740008811A1FB00010023FFF740FD2168C1F3E0
:100750000141491C4900B0FBF1F010BD08380240CE
:100760000024F4002DE9F84F050076D02878DFF852
:10077000F8B2BE4CC00749D0DBF800105846C1F3B0
:100780008101012908D00068C0F3810002280AD144
:10079000201D0068400206D52068800336D56868B1
:1007A0000028E2D032E06868B0F5803F10D0B0F5A4
:1007B000A02F206810D020F480302060206820F422
:1007C000802020606868A0B1FFF742FE06460CE07A
:1007D000206840F48030F4E740F480202060F7E7A0
:1007E000FFF736FE801B642873D820688003F7D596
:1007F0000CE0FFF72DFE064605E000BFFFF728FEE0
:10080000801B6428F0D820688003F7D42878DFF8AC
:10081000608280074FF000093ED5DBF80010584693
:1008200011F00C0F09D00068C0F3810002280BD131
:100830008D48001F0068400206D42068800715D547
:10084000E868012809D111E0E868B8B10120C8F8CA
:100850000000FFF7FDFD064605E002E1FFF7F8FDA9
:10086000801B0228C0D820688007F7D52068296936
:1008700020F0F80040EAC10020600DE0C8F80090C8
:10088000FFF7E6FD064604E0FFF7E2FD801B0228C5
:100890001FD820688007F7D42878000722D5724E29
:1008A000744869696C3671B101210160FFF7D0FDB0
:1008B000074604E0FFF7CCFDC01B022809D83068CA
:1008C0008007F7D50EE0C0F80090FFF7C1FD07469E
:1008D00005E083E0FFF7BCFDC01B02287ED830682E
:1008E0008007F7D42878400768D5DFF87CA1002777
:1008F0000AF1380ADAF80000C0000BD4DAF8001068
:1009000041F08051CAF80010DAF80000012700F029
:1009100080500090584E3068C00510D4306840F4C4
:1009200080703060FFF794FD009005E0FFF790FDC8
:100930000099401A022851D83068C005F6D54A4EB1
:10094000A868683601280FD00528306810D020F03C
:1009500001003060306820F004003060A868B8B151
:10096000FFF776FD00900FE0306840F00100F4E7FB
:1009700040F004003060F7E7FFF76AFD0099411A84
:1009800041F28830814264D830688007F4D50EE0A7
:10099000FFF75EFD009007E0FFF75AFD0099411A4E
:1009A00041F28830814254D830688007F4D42FB1A6
:1009B000DAF8001021F08051CAF80010A869C0B31D
:1009C000DBF80010C1F3810102294AD00228484611
:1009D00007D0C8F86000FFF73BFD00E039E00546AE
:1009E0003AE04746C8F86000FFF732FD064604E0EB
:1009F000FFF72EFD801B02282BD820688001F7D43A
:100A0000D5E907010843A96A1C4A490802EB0141DC
:100A10006A6A41EA8211084395F82C1040EA0161A4
:100A20001148001F016001203866FFF711FD0546DF
:100A300005E014E0FFF70CFD401B022809D82068F0
:100A40008001F7D50BE000BFFFF702FD401B022835
:100A500002D90320BDE8F88F20688001F4D400207B
:100A6000F8E70120F6E700000838024000380240AD
:100A700000004742800E4742007000400000FFFF28
:100A800010B5401EB0F1807F01D3012010BD4FF0A2
:100A9000E02460610F21601700F007FD0020A061D5
:100AA00007202061002010BD7047704770B590F896
:100AB0003C20012A19D0012400F83C4F0222427048
:100AC00050F83C3C5A689D6822F070060A684968F4
:100AD000324325F0800529435A6050F83C2C916040
:100AE000447000210170084670BD022070BD10B531
:100AF000040003D094F83D0010B107E0012010BDC0
:100B0000002084F83C00204600F00CF8022084F815
:100B10003D00211D206800F0EFFA012084F83D001F
:100B2000002010BD08B50068B0F1804F12D10A480E
:100B3000016841F0010101600068002200F001003D
:100B4000009011461C20FFF7F3FCBDE808401C2074
:100B5000FFF7E0BC08BD0000403802400168CA68E9
:100B600042F00102CA600068816801F007010629AD
:100B700003D0016841F0010101600020704770B5A9
:100B8000044690F83C00012817D0012584F83C5019
:100B9000022084F83D002068826822F0770222F467
:100BA0007F4282600868502830D00DDC20284DD06C
:100BB00005DC98B310283BD148E0022070BD3028F6
:100BC00044D0402834D139E0602828D0702806D09D
:100BD000B0F5805F2CD0B0F5005F29D10AE0CB687A
:100BE000D1E90121206800F0D3FA2068816841F042
:100BF000770109E0CB68D1E90121206800F0C8FA4B
:100C00002068816841F48041816011E0CA684968C8
:100C1000206800F0CFFA5021206807E016E0CA688B
:100C20004968206800F0D7FA6021206800F0BAFA1D
:100C300084F83D50002084F83C0070BDCA684968C3
:100C4000206800F0B7FA40212068EFE722680146EB
:100C50001046EBE7704770B50446006801694FF035
:100C60000005C943890715D4C168C943890711D450
:100C7000E91E0161012020772068806980072046F5
:100C800002D0FFF7E7FF04E000F098F8204600F0FC
:100C900096F8257720680169C943490717D4C168C8
:100CA000C943490713D46FF0040101610220207782
:100CB0002068806910F4407F204602D0FFF7CAFF09
:100CC00004E000F07BF8204600F079F825772068F2
:100CD0000169C943090716D4C168C943090712D479
:100CE0006FF008010161042020772068C069800747
:100CF000204602D0FFF7AEFF04E000F05FF8204688
:100D000000F05DF8257720680169C943C90617D44A
:100D1000C168C943C90613D46FF0100101610820EE
:100D200020772068C06910F4407F204602D0FFF78A
:100D300091FF04E000F042F8204600F040F82577EB
:100D400020680169C943C90708D1C168C943C907F7
:100D500004D1891E0161204600F032F82068016943
:100D6000C943090609D4C168C943090605D46FF00F
:100D7000800101612046FFF797FE20680169C943A1
:100D8000490609D4C168C943490605D46FF040013A
:100D90000161204600F032F820680169C9438906E4
:100DA0000BD4C168C943890607D46FF020010161E3
:100DB0002046BDE87040FFF778BE70BD70477047B1
:100DC00010B50B490068096888420BD1094C0A48E4
:100DD000217841B101222021FFF734FB207820B196
:100DE0000020207010BD0022F5E70120F9E7000087
:100DF000140000200000002000000240704770B581
:100E0000040004D094F83900002510B106E0012058
:100E100070BD84F83850204600F022F8242084F871
:100E200039002068C16821F40051C160204600F0FB
:100E3000E5F92068016921F4904101612068416968
:100E400021F02A0141612068C16841F40051C1606C
:100E5000E563202084F8390084F83A00002070BD52
:100E600010B586B0044614216846FFF7E7F9134928
:100E7000206888421FD112480021026842F40032E3
:100E80000260006800F4003005900D4810380268D8
:100E900042F001020260006800F0010005900C20A1
:100EA00000900220CDE901010720CDE90310694639
:100EB0000448FFF703FA06B010BD000000440040EC
:100EC0004038024000000240FEE7000030B587B025
:100ED00014216846FFF7B2F91E480024016841F06A
:100EE00004010160016801F004010591016841F00D
:100EF00080010160016801F080010591016841F005
:100F000001010160016801F001010591016841F0F2
:100F1000020101600068104D00F0020005900022FF
:100F200020212846FFF78EFA4FF4005000900B481E
:100F3000CDE9010469460A48FFF7C0F92020009076
:100F40000120CDE90104694628460394FFF7B6F96C
:100F500007B030BD303802400000024000002110D0
:100F60000008024010B586B0002417480094019490
:100F70000294039404944FF080410594016042F27E
:100F8000CF01C0E9011441F28731C0E90314802187
:100F90008161FFF7ACFD08B1FFF78EF94FF4805087
:100FA000009069460848FFF7EAFD08B1FFF784F9A9
:100FB000049404A904480594FFF778FD002801D0A3
:100FC000FFF77AF906B010BD140000200C4810B5E8
:100FD0000A4901604FF4E1314160002181600C2237
:100FE000C160C0E904128161C161FFF708FF0028F8
:100FF00003D0BDE81040FFF75FB910BD00440040CA
:1010000054000020FEE7704770477047FFF726BA8C
:1010100030B593B030216846FFF710F914210CA8C1
:10102000FFF70CF91A480024016841F08051016073
:10103000006800F0805011901648016821F440418A
:1010400041F4004101600068022500F44040119025
:10105000012003901020009506950490CDE90740EB
:101060004FF4A870099004200A9007200B9068465E
:10107000FFF778FB0F20CDE90C05E802CDE90E4023
:1010800002210CA81094FFF785FA13B030BD0000C0
:1010900040380240007000401048016841F470017F
:1010A00001600F48016841F0010101600C4A002114
:1010B0000832116002680B4B1A400260031D0A4A95
:1010C0001A60026822F48022026005480C30016038
:1010D00002495806803908607047000088ED00E03A
:1010E00000380240FFFFF6FE103000240148FFF7F1
:1010F000B2BD000014000020F0B502681D4B1E4C6C
:101100009F031E4D1E4E984207D0B84205D0A04204
:1011100003D0A84201D0B04204D122F0700C4A683A
:1011200042EA0C02984210D0B8420ED0A0420CD035
:10113000A8420AD0B04208D0124CA04205D0124CAE
:10114000A04202D0114CA04203D122F44074CA68DC
:1011500022434C6922F08002224302608A68C26204
:101160000A688262984201D10969016301214161E3
:10117000F0BD0000000001400004004000080040F5
:10118000000C004000400140004401400048014084
:1011900010B5846842EA032224F47F440A432243C0
:1011A000826010BD826822F070020A4342F007019B
:1011B0008160704710B5036A046A24F00104046278
:1011C000846924F0F00444EA021423F00A020A437A
:1011D0008461026210BD10B5036A23F0100303623C
:1011E0008369046A23F4704343EA023224F0A003C3
:1011F00043EA01118261016210BD00002DE9F04156
:10120000044600680169E26821F44051114301611C
:101210002169A068E26908436169114322680843B3
:10122000D16849F20C6399430143D1602068416958
:10123000A26921F4407111434161E2696425B2F56C
:10124000004F9748974922684FF032083FD08A42B2
:1012500001D082427CD1FFF745FA00EBC00101EBDF
:10126000001061688900B0FBF1F6FFF73BFA00EB74
:10127000C00101EB001061688900B0FBF1F0B0FB28
:10128000F5F06FF01801484306EB800108EB011000
:10129000B0FBF5F000F0F006FFF724FA00EBC00118
:1012A00001EB001061688900B0FBF1F0B0FBF5F0D4
:1012B00006EB0016FFF716FA00EBC00101EB001079
:1012C00061688900B0FBF1F7FFF70CFAD2E08A42BF
:1012D00001D082423DD1FFF705FA00EBC00101EBDE
:1012E000001061684900B0FBF1F0B0FBF5F00601B9
:1012F000FFF7F8F900EBC00101EB0010616849004D
:10130000B0FBF1F7FFF7EEF900EBC00101EB0010C5
:1013100061684900B0FBF1F0B0FBF5F06FF0180127
:10132000484307EB800108EBC100B0FBF5F000F08B
:10133000F80006EB4006FFF7D5F900EBC00101EB22
:10134000001061684900B0FBF1F7FFF7CBF93CE012
:1013500055E0FFF7B7F900EBC00101EB0010616841
:101360004900B0FBF1F0B0FBF5F00601FFF7AAF978
:1013700000EBC00101EB001061684900B0FBF1F720
:10138000FFF7A0F900EBC00101EB00106168490014
:10139000B0FBF1F0B0FBF5F06FF01801484307EB3C
:1013A000800108EBC100B0FBF5F000F0F80006EB9F
:1013B0004006FFF787F900EBC00101EB0010616800
:1013C0004900B0FBF1F7FFF77DF900EBC00101EB3D
:1013D000001061684900B0FBF1F0B0FBF5F06FF070
:1013E0001801484307EB800108EBC100B0FBF5F0A2
:1013F00000F00700216830448860BDE8F081FFF705
:1014000061F900EBC00101EB001061688900B0FBDD
:10141000F1F6FFF757F900EBC00101EB001061682E
:101420008900B0FBF1F0B0FBF5F06FF01801484314
:1014300006EB800108EB0110B0FBF5F000F0F006C0
:10144000FFF740F900EBC00101EB00106168890073
:10145000B0FBF1F0B0FBF5F006EB0016FFF732F948
:1014600000EBC00101EB001061688900B0FBF1F7EF
:10147000FFF728F900EBC00101EB0010616889005B
:10148000B0FBF1F0B0FBF5F06FF01801484307EB4B
:10149000800108EB0110B0FBF5F000F00F00A9E7A8
:1014A0000014014000100140FEE70907090E002862
:1014B00004DB00F1E02080F80014704700F00F001A
:1014C00000F1E02080F8141D704702E008C8121FE8
:1014D00008C1002AFAD170477047002001E001C11D
:1014E000121F002AFBD17047FEF7C0FFFFF790FDE7
:1014F000FFF7ECFCFFF736FDFFF768FD0348FFF749
:10150000AAFB0248FFF72AFBFEE7000014000020B8
:1015100000000000000000000102030406070809A3
:10152000000000000102030448150008000000202C
:1015300014000000CA1400085C1500081400002004
:1015400084040000DA14000800000000010000001C
:0C15500010000000000000000024F40067
:040000050800019559
:00000001FF
