:020000040800F2
:1000000090040020A9010008130F0008F10D00085A
:10001000110F0008B5020008E512000800000000FA
:10002000000000000000000000000000170F0008A2
:10003000B702000800000000150F0008190F0008A3
:10004000C3010008C3010008C3010008C301000880
:10005000C3010008C3010008C3010008C301000870
:10006000C3010008C3010008C3010008C301000860
:10007000C3010008C3010008C3010008C301000850
:10008000C3010008C3010008C3010008000000000C
:10009000000000000000000000000000C301000894
:1000A000C3010008C3010008C3010008C301000820
:1000B000C3010008C3010008C3010008C301000810
:1000C000C3010008C3010008C3010008C301000800
:1000D000C3010008C3010008C301000800000000BC
:1000E000C3010008C3010008C301000800000000AC
:1000F000000000000000000000000000C301000834
:1001000000000000C3010008C3010008C30100088B
:1001100000000000000000000000000000000000DF
:10012000C3010008C3010008C3010008C30100089F
:10013000C3010008000000000000000000000000F3
:10014000000000000000000000000000C3010008E3
:10015000C3010008C3010008C3010008C30100086F
:10016000C3010008C30100080000000000000000F7
:10017000000000000000000000000000000000007F
:1001800000000000C30100080000000000000000A3
:10019000C3010008DFF80CD000F07AF800480047EF
:1001A00025130008900400200648804706480047B1
:1001B000FEE7FEE7FEE7FEE7FEE7FEE7FEE7FEE717
:1001C000FEE7FEE7A90F0008950100082DE9F05FA2
:1001D0000546002092469B468846064681464024B6
:1001E0001BE0284641464746224600F041F8534668
:1001F0005A46C01A914110D311461846224600F0C3
:1002000028F82D1A67EB01084F46224601200021ED
:1002100000F01FF817EB00094E41201EA4F1010465
:10022000DFDC484631462A464346BDE8F09FD2B25D
:1002300001E000F8012B491EFBD270470022F6E7CF
:1002400010B513460A4604461946FFF7F0FF20464C
:1002500010BD202A04DB203A00FA02F1002070478A
:100260009140C2F1200320FA03F3194390407047F4
:10027000202A04DB203A21FA02F00021704721FAFB
:1002800002F3D040C2F12002914008431946704762
:10029000064C074D06E0E06840F0010394E80700D3
:1002A00098471034AC42F6D3FFF778FF8C13000860
:1002B000AC130008FEE770477047000070B50446B5
:1002C00000F0D8F80546601C02D0044800780444C9
:1002D00000F0D0F8401BA042FAD370BD000000200F
:1002E0002DE9F84F00224FF0010803254FF00F0EC3
:1002F0000B6808FA02F42340A34271D14E68012E24
:1003000005D0022E03D0112E01D0122E15D18668F1
:10031000570005FA07FC26EA0C06D1F80CC00CFAC7
:1003200007FC4CEA060CC0F808C04668A6430C79E6
:10033000C4F30014944034434460C668570005FA7F
:1003400007FC8C6826EA0C06BC403443C4604C6849
:10035000022C01D0122C13D1D40800EB8404A34644
:10036000D4F8209054074FEAD46A0EFA0AF629EA24
:1003700006090E6906FA0AF646EA0906CBF8206075
:1003800004680E7924EA0C0406F00306BE402643F6
:1003900006604C68E40056D52E4C266846F480462C
:1003A0002660246822F0030604F4804400942A4C5A
:1003B0003444A446D4F808489607370F0EFA07F6D7
:1003C000B443264EB04201D1002615E0244EB0427F
:1003D00001D1012610E0234EB04202D102260BE0EB
:1003E00031E0214EB04201D1032605E01F4EB0425C
:1003F00001D1042600E00726BE402643CCF8086859
:100400001B4E34684F689C43FF0300D51C43346087
:10041000174E361D34684F689C43BF0300D51C43FC
:100420003460134E083634684F689C43FF0200D591
:100430001C4334600E4E0C3634684F689C43BF0238
:1004400000D51C433460521C102AFFF451AFBDE8A4
:10045000F88F0000443802400030014000000240A4
:100460000004024000080240000C0240001002405C
:10047000003C0140014880687047000000000020F7
:1004800002488168027811448160704700000020B2
:100490000B4810B5016841F400710160016841F436
:1004A00080610160016841F480710160032000F007
:1004B00063F8002000F006F800F024F8002010BDDA
:1004C000003C024070B50D4D04464FF47A71287817
:1004D000B1FBF0F00A490968B1FBF0F000F0F6FA60
:1004E00048B9102C07D200222146501E00F024F8F3
:1004F00000206C6070BD012070BD00000000002075
:100500000C0000200B4882B0016841F4804101607A
:10051000006800F4804000900648001F016841F028
:1005200080510160006800F080500090072002B008
:1005300000F022B844380240F0B40E4B1B680C4661
:10054000C3F30223C3F10705042D00D90425191DA7
:10055000072901D2002300E0DB1E012606FA05F17F
:10056000491E214099409E40761E16403143F0BC02
:1005700000F0B9BE0CED00E0064900F00702086883
:100580004FF6FF03184040EA0220034A1043086078
:10059000704700000CED00E00000FA052DE9F0477F
:1005A0000E46050065D0DFF81481D8F80000F7B2D8
:1005B00000F00F00B04207D288F80070D8F80000B1
:1005C00000F00F00B04254D128683D4C810712D58D
:1005D000400703D5206840F4E050206028780007E9
:1005E00003D5206840F4604020602068A96820F0AE
:1005F000F000084320602878C0072DD03049686893
:100600000839012812D0022813D0032811D0096814
:10061000890700292DDA216821F0030101432160B7
:10062000FFF728FF814641F2883A0EE00968890306
:10063000EFE709688901ECE7FFF71CFFA0EB090170
:10064000514502D90320BDE8F0872068696800F0B1
:100650000C00B0EB810FEFD1D8F80010404601F04C
:100660000F01B14207D90770006800F00F00B042D7
:1006700001D00120E7E72878400705D52068E96820
:1006800020F4E050084320602878000706D5206851
:10069000296920F4604040EAC100206000F038F889
:1006A0002168084AC1F30311515CC840064908603B
:1006B00006480068FFF706FF0020C4E7003C024040
:1006C00008380240741300080C00002004000020C9
:1006D0000448054900680968044AC1F38221515C55
:1006E000C84070470C0000200838024084130008FE
:1006F0000448054900680968044AC1F34231515C65
:10070000C84070470C0000200838024084130008DD
:10071000154810B5006810F00C02144813D04110B1
:10072000042A0FD0082A0ED10F4C241F22682368F8
:1007300002F03F025B0207D52068C0F38810A0FBDF
:10074000010106E0084610BD2168C1F38811A1FB34
:1007500000010023FFF73AFD2168C1F30141491C64
:100760004900B0FBF1F010BD083802400024F4004D
:100770002DE9F84F040076D02078DFF838A3CE4D6D
:10078000C00749D0DAF800105046C1F381010129B1
:1007900008D00068C0F3810002280AD1281D006833
:1007A000400206D52868800336D560680028E2D06C
:1007B00032E06068B0F5803F10D0B0F5A02F286817
:1007C00010D020F480302860286820F48020286031
:1007D0006068A0B1FFF74EFE06460CE0286840F4C2
:1007E0008030F4E740F480202860F7E7FFF742FE0E
:1007F000801B642873D828688003F7D50CE0FFF7C6
:1008000039FE064605E000BFFFF734FE801B642872
:10081000F0D828688003F7D42078DFF8A08280071A
:100820004FF000093ED5DAF80010504611F00C0FD9
:1008300009D00068C0F3810002280BD19D48001F39
:100840000068400206D42868800715D5E0680128B2
:1008500009D111E0E068B8B10120C8F80000FFF745
:1008600009FE064605E020E1FFF704FE801B022892
:10087000C0D828688007F7D52868216920F0F800DB
:1008800040EAC10028600DE0C8F80090FFF7F2FDD3
:10089000064604E0FFF7EEFD801B02281FD82868FB
:1008A0008007F7D42078000722D5824E84486169FA
:1008B0006C3671B101210160FFF7DCFD074604E0F1
:1008C000FFF7D8FDC01B022809D830688007F7D58C
:1008D0000EE0C0F80090FFF7CDFD074605E082E08E
:1008E000FFF7C8FDC01B02287DD830688007F7D409
:1008F0002078400768D5DFF8BCB100270BF1380B32
:10090000DBF80000C0000BD4DBF8001041F0805190
:10091000CBF80010DBF80000012700F080500090B9
:10092000684E3068C00510D4306840F48070306084
:10093000FFF7A0FD009005E0FFF79CFD0099401A2D
:10094000022850D83068C005F6D55A4EA0686836DF
:1009500001280FD00528306810D020F00100306049
:10096000306820F004003060A068B8B1FFF782FD65
:1009700000900FE0306840F00100F4E740F0040020
:100980003060F7E7FFF776FD0099411A41F28830B1
:10099000814266D830688007F4D50EE0FFF76AFD23
:1009A000009007E0FFF766FD0099411A41F2883098
:1009B000814256D830688007F4D42FB1DBF800109C
:1009C00021F08051CBF80010A069D0B3DAF80020F4
:1009D0005146C2F38102022A4AD00228484607D073
:1009E000C8F8600000E03CE0FFF744FD04463BE04F
:1009F0004746C8F86000FFF73DFD064605E000BF2A
:100A0000FFF738FD801B02282BD828688001F7D417
:100A1000D4E907010843A16A2B4A490802EB0141C6
:100A2000626A41EA8211084394F82C1040EA01619D
:100A30002048001F016001203866FFF71BFD0446B7
:100A400005E034E0FFF716FD001B022809D82868EE
:100A50008001F7D52BE000BFFFF70CFD001B02283B
:100A600002D90320BDE8F88F28688001F4D41EE085
:100A70000128F7D00868E26900F48001914214D19E
:100A8000226A00F03F0191420FD147F6C071626ABD
:100A90000140914209D1A26A00F44031914204D14F
:100AA000E16A00F07060884201D00120DAE700209E
:100AB000D8E70000083802400038024000004742F2
:100AC000800E4742007000400000FFFF10B5401E3E
:100AD000B0F1807F01D3012010BD4FF0E0246061B0
:100AE0000F21601700F0FFFB0020A06107202061AC
:100AF000002010BD70B590F83C20012A2CD00124B4
:100B000080F83C40022280F83D2003685A689D68C6
:100B100022F070060A6832435A60104B02689A420B
:100B20000ED0B2F1804F0BD00D4B9A4208D00D4B36
:100B30009A4205D00C4B9A4202D00C4B9A4204D1F7
:100B4000496825F080031943916080F83D400021F9
:100B500080F83C10084670BD022070BD00000140C6
:100B60000004004000080040000C0040004001402C
:100B700010B586B0044614216846FFF75FFB206875
:100B8000B0F1804F15D10C480021026842F00102FB
:100B90000260006800F00100059020200090022013
:100BA000CDE901010120CDE9031069460348FFF7B3
:100BB00097FB06B010BD0000303802400000024034
:100BC00070B5044690F83C000D4601280DD0012672
:100BD00084F83C60022084F83D0042B1042A18D019
:100BE000082A2AD00C2A4DD139E0022070BD206895
:100BF00000F042FA2068816941F0080181612068B3
:100C0000816921F004018161206881692A691143A9
:100C100011E0206800F058FA2068816941F4006111
:100C200081612068816921F4806181612068816926
:100C30002A6941EA0221816124E0206800F070FA0B
:100C40002068C16941F00801C1612068C16921F0D3
:100C50000401C1612068C1692A69114311E020685B
:100C600000F08AFA2068C16941F40061C16120681E
:100C7000C16921F48061C1612068C1692A6941EAC2
:100C80000221C16184F83D60002084F83C0070BD01
:100C900010B5040003D094F83D0010B107E0012026
:100CA00010BD002084F83C00204600F00DF8022022
:100CB00084F83D00211D206800F084F9012084F8AB
:100CC0003D00002010BD000008B50068B0F1804F65
:100CD00008D10548016841F001010160006800F099
:100CE0000100009008BD00004038024010B50446E5
:100CF0000068012200F0B2F909492068884203D156
:100D0000416C41F4004141642068816801F00701B1
:100D1000062903D0016841F001010160002010BDE7
:100D20000000014070B5040004D094F8390000259B
:100D300010B106E0012070BD84F83850204600F064
:100D400023F8242084F839002068C16821F4005178
:100D5000C160204600F032FA2068016921F4904118
:100D600001612068416921F02A0141612068C16860
:100D700041F40051C160E563202084F8390084F813
:100D80003A00002070BD000010B586B00446142162
:100D90006846FFF753FA1349206888421FD112486A
:100DA0000021026842F400320260006800F4003062
:100DB00005900D481038026842F001020260006898
:100DC00000F0010005900C2000900220CDE9010107
:100DD0000720CDE9031069460448FFF781FA06B001
:100DE00010BD0000004400404038024000000240B6
:100DF000FEE7000000B587B014216846FFF71EFA31
:100E000016480021026842F004020260026802F003
:100E100004020592026842F080020260026802F059
:100E200080020592026842F001020260026802F04C
:100E300001020592026842F002020260006800F0BE
:100E4000020005904FF4005000900548CDE90101E3
:100E500069460448FFF744FA07B000BD3038024045
:100E6000000021100008024010B58AB00024079449
:100E70001C2168460894FFF7E1F916484FF08041BD
:100E80000160A721C0E9011440F2E731C0E9031471
:100E90008461FFF7FDFE08B1FFF70EFA079407A97A
:100EA0000C480894FFF726FE08B1FFF705FA60200A
:100EB000CDE9000402940022694606480494FFF735
:100EC0007FFE08B1FFF7F8F90248FFF751FE0AB0BC
:100ED00010BD0000100000200C4810B50A49016048
:100EE0004FF4E1314160002181600C22C160C0E912
:100EF00004128161C161FFF715FF002803D0BDE82E
:100F00001040FFF7D9B910BD004400405000002048
:100F1000FEE7704770477047FFF7B2BA30B593B03D
:100F200030216846FFF78AF914210CA8FFF786F9EB
:100F30001B480025016841F080510160006800F005
:100F4000805011901748016821F4404141F400415C
:100F500001600068022400F44040119001200090DC
:100F60004FF4A02001906005CDE9064008200890CC
:100F70004FF4A870099004200A9007200B9068464F
:100F8000FFF7F6FB0CA90F2081E83100E0020F907B
:100F9000109002210CA8FFF701FB13B030BD000038
:100FA00040380240007000400548016841F470017B
:100FB000016003494FF0006080390860704700000D
:100FC00088ED00E0F0B502681D4B1E4C9F031E4DDE
:100FD0001E4E984207D0B84205D0A04203D0A84286
:100FE00001D0B04204D122F0700C4A6842EA0C02EF
:100FF000984210D0B8420ED0A0420CD0A8420AD0DD
:10100000B04208D0124CA04205D0124CA04202D0EF
:10101000114CA04203D122F44074CA6822434C69A7
:1010200022F08002224302608A68C2620A688262F9
:10103000984201D10969016301214161F0BD0000BD
:10104000000001400004004000080040000C004087
:1010500000400140004401400048014010B501F04B
:101060001F030121046A99408C430462016A9A407B
:101070001143016210BD000030B5026A22F0010286
:101080000262026A4368846924F073050C682C4389
:1010900022F002058A682A430A4DA8420BD122F0A9
:1010A0000805CA6823F440732A434D6922F00402FC
:1010B0001D438B692B43436084614968416302622D
:1010C00030BD00000000014030B5026A22F010027D
:1010D0000262026A436884690D6824F4E64444EAC3
:1010E00005248D6822F0200242EA05120B4DA84229
:1010F0000ED1CD6822F0800242EA05124D6923F438
:10110000406343EA85038D6922F0400243EA850388
:101110004360846149688163026230BD0000014020
:1011200030B5026A22F480720262036A4268C469BE
:1011300023F4007324F073050C682C438D6843EA94
:1011400005230C4DA8420ED1CD6823F4006343EA79
:1011500005234D6922F4405242EA05128D6923F4B9
:10116000806342EA05124260C4614968C163036258
:1011700030BD00000000014030B5026A22F4805208
:101180000262046A4268C3690D6823F4E64343EAD5
:1011900005238D6824F4005444EA0534064DA84222
:1011A00004D14D6922F4804242EA85124260C36153
:1011B00049680164046230BD000001402DE9F0413E
:1011C000044600680169E26821F44051114301615D
:1011D0002169A068E26908436169114308432168F5
:1011E000CA6849F20C639A430243CA6020684169A5
:1011F000A26921F4407111434161E0691927642516
:101200003226B0F5004F354A354920684FF00008C6
:1012100006D0884201D0904236D1FFF769FA35E016
:10122000884201D0904202D1FFF762FA01E0FFF755
:101230004FFA61684A18A0FB070148EB0803FEF764
:10124000C5FF0146B0FBF5F00201B1FBF5F06FF010
:101250001803584301EB800006EBC000B0FBF5F02B
:1012600000F0F80002EB4002B1FBF5F0584301EB4F
:10127000800006EBC000B0FBF5F000F0070021682D
:1012800010448860BDE8F081FFF722FA61688B0F97
:101290008A00A0FB0701FEF799FF0146B0FBF5F0BD
:1012A0006FF01802504301EB800006EB0010B0FB1A
:1012B000F5F000F0F002B1FBF5F002EB0012B1FB2B
:1012C000F5F06FF01803584301EB800006EB0010B7
:1012D000B0FBF5F000F00F00D1E700000014014072
:1012E00000100140FEE70907090E002804DB00F1A9
:1012F000E02080F80014704700F00F0000F1E020BB
:1013000080F8141D704702E008C8121F08C1002AA7
:10131000FAD170477047002001E001C1121F002A76
:10132000FBD170470024FFF7B3F8FFF7F7FDFFF795
:1013300061FDFFF799FDFFF7CFFD00210C48FFF796
:10134000D5FC6420FEF7BAFF094F4FF47A786FF0AE
:101350006306642502E0444500D1354638682C44D4
:1013600044636420FEF7AAFF002CF2D0F3E70000EC
:101370001000002000000000000000000102030433
:10138000060708090000000001020304AC1300086E
:10139000000000201000000006130008BC13000825
:1013A0001000002080040000161300080100000057
:0C13B00010000000000000000024F40009
:040000050800019559
:00000001FF
