:020000040800F2
:10000000D0200020D90100084B1B000871190008FE
:10001000491B00085F0300086D370008000000005E
:10002000000000000000000000000000D91C0008D3
:10003000D103000800000000D71C0008DB1C0008EA
:10004000F3010008F3010008F3010008F3010008C0
:10005000F3010008F3010008F3010008F3010008B0
:10006000F3010008F3010008F3010008F3010008A0
:10007000F3010008F3010008F3010008F301000890
:10008000F3010008F3010008F3010008F301000880
:10009000F3010008F3010008F3010008F301000870
:1000A000F3010008F3010008F3010008F301000860
:1000B000F3010008F3010008F3010008F301000850
:1000C000F3010008F3010008F3010008F301000840
:1000D000F3010008F3010008F3010008F301000830
:1000E000F3010008F3010008F3010008F301000820
:1000F000F3010008F3010008F3010008F301000810
:1001000000000000F3010008F3010008F3010008FB
:100110000000000000000000F3010008F3010008E7
:10012000F3010008F3010008F3010008F3010008DF
:10013000F3010008F3010008F3010008F3010008CF
:10014000F3010008F3010008F30100084D1B00084B
:10015000F3010008F3010008F3010008F3010008AF
:10016000F3010008F3010008000000000000000097
:10017000000000000000000000000000000000007F
:10018000F3010008F3010008000000000000000077
:10019000F3010008F3010008000000000000000067
:1001A000000000000000000000000000000000004F
:1001B000F30100080000000000000000F301000847
:1001C000F3010008DFF80CD000F08CF8004800477D
:1001D000FD370008D0200020064880470648004729
:1001E000FEE7FEE7FEE7FEE7FEE7FEE7FEE7FEE7E7
:1001F000FEE7FEE77D1D0008C50100082DE9F05F60
:100200000546002092469B46884606468146402485
:100210001BE0284641464746224600F053F8534625
:100220005A46C01A914110D311461846224600F092
:100230003AF82D1A67EB01084F46224601200021AB
:1002400000F031F817EB00094E41201EA4F1010423
:10025000DFDC484631462A464346BDE8F09F40EA87
:1002600001039B0703D009E008C9121F08C0042A34
:10027000FAD203E011F8013B00F8013B521EF9D21B
:100280007047D2B201E000F8012B491EFBD2704743
:100290000022F6E710B513460A4604461946FFF752
:1002A000F0FF204610BD202A04DB203A00FA02F1BC
:1002B000002070479140C2F1200320FA03F3194354
:1002C00090407047202A04DB203A21FA02F00021F6
:1002D000704721FA02F3D040C2F120029140084356
:1002E00019467047064C074D06E0E06840F00103F0
:1002F00094E8070098471034AC42F6D3FFF766FF46
:10030000C4380008E438000870B58C1810F8015B98
:1003100015F0070301D110F8013B2A1106D110F89E
:10032000012B03E010F8016B01F8016B5B1EF9D1A2
:100330002B0705D40023521E0DD401F8013BFAE728
:1003400010F8013BCB1A921C03E013F8015B01F893
:10035000015B521EF9D5A142D8D3002070BDFEE743
:10036000002070470020704710B50022044905485E
:1003700001F078FF0449034801F06EFF002010BD32
:1003800080120020DC010020800A002010B5014608
:10039000034801F061FF024801F042FF002010BD58
:1003A000DC010020094A10B5D2F89022D2F81422BC
:1003B0000AB1012010BD0A460146044801F052FF6F
:1003C000BDE81040014801F0ABBF0000DC01002097
:1003D0007047704770B5044600F0E6F80546601CAB
:1003E00002D004480078044400F0DEF8401BA0422C
:1003F000FAD370BD700000202DE9F84FDFF874B11A
:1004000000224FF001084FF0030A4FF00F090BF1E3
:10041000040E00BF0B6808FA02F42340A3426ED119
:100420004D68022D01D0122D0ED1D50800EB850CA0
:10043000DCF820505607F70E09FA07F6B5430E69A7
:10044000BE402E43CCF82060066855000F790AFAAA
:1004500005FC07F0030726EA0C06AF4037430760A8
:100460004E68012E05D0022E03D0112E01D0122E7F
:100470000ED18668CF6826EA0C06AF403743876006
:100480004668A6430C79C4F3001494403443446096
:10049000C4688E6824EA0C04AE402643C6604C68EB
:1004A000E40060D5344C256845F480452560246817
:1004B00022F0030504F480440094304C2E19D6F841
:1004C000084895072F0F09FA07F5AC432C4DA842B1
:1004D00001D100251FE02B4DA84201D101251AE0D2
:1004E000294DA84201D1022515E0284DA84201D18D
:1004F000032510E0264DA84202D104250BE032E08E
:10050000244DA84201D1052505E0234DA84201D183
:10051000062500E00725BD402543C6F80858DBF84E
:1005200000405D464E689C43F60300D51C432C609A
:10053000DEF8004075464E689C43B60300D51C4368
:100540002C600C4D08352C684E689C43F60200D593
:100550001C432C60074D0C352C684E689C43B6023A
:1005600000D51C432C60521C102AFFF453AFBDE889
:10057000F88F0000003C0140443802400030014048
:10058000000002400004024000080240000C02404B
:100590000010024000140240001802400AB18161BC
:1005A00070470904FBE700000148806870470000BD
:1005B0007000002002488168027811448160704711
:1005C000700000200B4810B5016841F40071016013
:1005D000016841F480610160016841F4807101604B
:1005E000032000F06FF8002000F006F800F024F877
:1005F000002010BD003C024070B50D4D04464FF484
:100600007A712878B1FBF0F00A490968B1FBF0F083
:1006100001F032F948B9102C07D200222146501EB1
:1006200000F030F800206C6070BD012070BD00004B
:10063000700000207C0000200A4808B5016841F4E1
:1006400080410160006800F4804000900548001F70
:10065000016841F080510160006800F08050009016
:1006600008BD000044380240002809DB00F01F02EA
:10067000012191404009800000F1E020C0F8001104
:1006800070470000F0B40E4B1B680C46C3F3022306
:10069000C3F10705042D00D90425191D072901D22E
:1006A000002300E0DB1E012606FA05F1491E214069
:1006B00099409E40761E16403143F0BC03F057B877
:1006C0000CED00E0064900F0070208684FF6FF0352
:1006D000184040EA0220034A1043086070470000B7
:1006E0000CED00E00000FA0501220168C0F8FC23CF
:1006F000002280F8F423886940F000608861486D2A
:10070000024A1043486500207047000003000010B3
:1007100070B5164D0446A1B1012911D12068D0F859
:10072000001E41F00101C0F8001ED4F8040402F0DC
:100730004DF9206A002803D0286840F006002860A0
:1007400070BD206A28B101F0CBFA286820F00600BD
:1007500028602068D0F8001E21F00101C0F8001EBA
:10076000D4F80404BDE8704002F0D3B810ED00E006
:100770000068416200207047F0B50368586A39B1DB
:100780009C6A4FF4827600EB144400204D1E0AE070
:1007900040EA024098620FE006EB8007DF59401CF8
:1007A00004EB1744C0B2A842F6D344EA02404FF427
:1007B000807202EB810158500020F0BDD0F8040493
:1007C00002F012B8C1EBC10200EB8202D0F80404BF
:1007D000926C01F065BFC1EBC10200EB8202D0F860
:1007E0000404D2F8082201F0BEBFD0F8040401F0DE
:1007F000FDBF70B504460B0601F00F00C0EBC00151
:1008000004EB81014FF001024FF0000503D581F8A0
:100810003D203C3103E081F8FD5101F5FE71087087
:1008200094F8BC03012808D084F8BC23206802F0A7
:1008300057FB84F8BC53002070BD022070BD70B51A
:10084000044601F00F006268904201D9012070BD9A
:100850000B0601F00F01C1EBC10104EB81014FF068
:1008600001024FF0000503D581F83D203C3103E043
:1008700081F8FD5101F5FE718D70087094F8BC038C
:10088000012808D084F8BC23206802F001FD84F818
:10089000BC53002070BD022070BD01F00F01C1EB00
:1008A000C10100EB8100D0F8140270472DE9F0413E
:1008B00004460F0601F00F00C0EBC00104EB8101FC
:1008C0004FF001064FF0000503D581F83D603C3143
:1008D00003E081F8FD5101F5FE7108708A60CB706C
:1008E0004A7802B1C880022B00D10D7194F8BC0384
:1008F000012809D084F8BC63206802F041FA284638
:1009000084F8BC53BDE8F0810220FBE770B50C46CB
:1009100001F00F05C5EBC50100EB8101C1F81032F4
:10092000C1F808220023C1F8143281F8FD3181F8A2
:10093000FC51036901F5FE71012B00D10A61220708
:10094000027C006803D002F0FBFC002070BD02F0C6
:10095000E7FBFAE770B504460D4601F00F00616849
:10096000884201D9012070BD29064FF000064FF0E2
:10097000010207D5C0EBC00104EB810181F83D20E5
:100980003C3107E0C5EBC50104EB810181F8FD6155
:1009900001F5FE718A70087094F8BC03012807D035
:1009A00084F8BC23206802F09FFC280702D007E0EF
:1009B000022070BD217C04F57172206802F03CFCBD
:1009C00084F8BC63002070BD70B50C4601F00F05C3
:1009D000C5EBC50100EB81010B658A6400234B6503
:1009E000012381F83D3001F83C5F0369012B00D100
:1009F0000A612207027C006803D002F0A1FC0020FB
:100A000070BD02F08DFBFAE72DE9FC5F0568044636
:100A1000284602F0BEFD00287ED1206802F0E5FDE8
:100A2000002879D0206802F0E0FD800704D5206816
:100A3000416901F002014161206802F0D6FD010325
:100A400004F571704FF001094FF0080B009075D557
:100A50000026206802F0A8FD0746DFF838A46BE006
:100A6000F80767D0F1B2206802F0B7FD8046C007F2
:100A700007D005EB4611C1F8089B3146204601F02E
:100A80006BF85FEA087032D52068016C019100EBC9
:100A90004611D1F8080B2269012A019A0FD0FE4BAA
:100AA0009A4214D1000403D54FF40040C1F8080B5A
:100AB000204600F0F0FA206901280FD013E05245DB
:100AC00005D9000403D54FF40040C1F8080B2046B7
:100AD00000F0E1FA01985045EDD804E020680121CA
:100AE000009A02F0A9FB05EB4611C1F808BB5FEACA
:100AF000C86004D505EB46111020C1F8080B5FEA69
:100B000088600ED52069012804D120680121009A4F
:100B100002F092FB202100E0C2E105EB4610C0F894
:100B2000081B5FEA884005D505EB46104FF40051DD
:100B3000C0F8081B7F08761C002F91D1206802F0B6
:100B400054FD40034FF0000A5FD5206802F025FDF8
:100B50000746002657E0F80753D0F1B2206802F0AC
:100B60002AFD8046C00726D006F00F0209FA02F0DF
:100B7000D5F834288243C5F8342805EB4610C0F870
:100B800008992069012807D1C6EBC60004EB800054
:100B9000D0E9112111448164F1B22046FFF712FE21
:100BA0002069012807D136B9206D20B920680121BC
:100BB000009A02F041FB5FEA087003D505EB46118D
:100BC000C1F808B95FEAC86004D505EB46111020EA
:100BD000C1F808095FEA486004D505EB46104021DA
:100BE000C0F808195FEA887004D505EB46100221A9
:100BF000C0F808195FEA086003D53146204601F0C5
:100C000019F87F08761C002FA5D1206802F0EDFCB2
:100C1000002811DAD5F8040820F00101C5F80418FD
:100C200094F8F40301283BD0204600F018FA20681D
:100C3000416901F000414161206802F0D6FC0005E5
:100C40000BD5D5F80808C00702D0204600F04CFAB2
:100C50002068416901F400614161206802F0C5FC2F
:100C600000010AD52068416901F00061416194F8F2
:100C7000F403E0B1204600F037FA206802F0B5FC3A
:100C8000C0046DD5D5F8040820F00101C5F804189A
:100C90001021206802F05EFC00214FF67F3226E032
:100CA00084F8F4A300212046FFF732FDBFE784F863
:100CB000F4932068406D0121C0F38300C4F8F80369
:100CC0002046FFF725FDD8E705EB4110C0F80829BD
:100CD000D0F8003923F40013C0F80039C0F8082B0D
:100CE000D0F8003B23F40013C0F8003B491C6068B7
:100CF0008842E9D8D5F81C0840F00111C5F81C1845
:100D0000206B002828460DD0D0F8840840F00B0155
:100D1000C5F88418D5F8440840F00B012846C5F8FA
:100D200044180DE0D0F8140842F22B010843C5F82E
:100D30001408D5F8100840F00B012846C5F8101823
:100D4000D0F8000820F4FE61C5F80018217C206866
:100D5000009A02F071FA2068416901F48051416102
:100D6000206802F042FC800415D5206802F048F8A3
:100D7000206802F001FCE06000F096FB0146227B57
:100D8000206802F06DFC204600F056F920684169A9
:100D900001F400514161206802F027FCC00634D5FF
:100DA0002068816921F0100181612F6A07F00F002E
:100DB000C0EBC00004EB8006C7F3434006F5FE76A7
:100DC000022802D0062811D01AE047F6F070074238
:100DD00016D0C7F30A1217462846F16802F009FC3C
:100DE000F0683844F060B069384408E008222846CA
:100DF000009902F0FEFBB069C7F30A110844B06124
:100E00002068816941F010018161206802F0EDFBEA
:100E1000000707D5204600F026F92068416901F057
:100E200008014161206802F0E0FBC00208D5002102
:100E3000204600F037F82068416901F480114161D3
:100E4000206802F0D2FB800208D50021204600F085
:100E50002DF82068416901F400114161206802F019
:100E6000C4FB400007D52046FFF7A8FC2068416975
:100E700001F080414161206802F0B7FB40070FD5C7
:100E800020684568680702D52046FFF7AEFC206859
:100E9000416803E00A30544F0A31544F29434160FE
:100EA000BDE8FC9FD0F8040401F0F2BCD0F80404C3
:100EB00001F0F0BC2DE9F0418AB0040005D094F8AF
:100EC000BD032668002520B108E001200AB0BDE876
:100ED000F08184F8BC53204600F064F8032084F8C5
:100EE000BD03F06BC00500D42561206802F012F943
:100EF00004F11001282288466846FFF7B0F994E80B
:100F00000F0001F097FF0226C8BB0021206802F005
:100F10007EFB002001270EE0C0EBC00104EB810145
:100F200081F83D7001F83C0FC880CD708D60CD60B8
:100F3000401CC0B24D6161688142EDD8002011E0D3
:100F4000C0EBC00104EB810181F8FD5181F8FC0187
:100F500081F8FF51C1F80452C1F80852401CC0B2D8
:100F6000C1F8105261688142EAD828224146684699
:100F7000FFF775F994E80F0002F00AF810B184F851
:100F8000BD63A2E784F8385084F8BD73606A012815
:100F900002D12046FFF7A8FB206801F0EDFF0020FA
:100FA00094E7000030B587B0044614216846FFF787
:100FB0006FF92068B0F1A04F38D11D4800240168B6
:100FC00041F00101016000681A4D00F00100059038
:100FD0004FF4E85000900220CDE901040320039073
:100FE0000A20049069462846FFF706FA6815CDE9FD
:100FF0000004694628460294FFF7FEF90C48001DDC
:10100000016841F08001016009481430016841F431
:10101000804101600068002200F480400590114684
:101020004320FFF72FFB4320FFF71EFB07B030BD27
:10103000303802400000024070B50446C068012507
:10104000022801D0FFF7C5F92946D4F8040401F0BD
:1010500072FCD4F80404BDE8704001F032BCD0F852
:10106000040401F056BCD0F8040401F058BC10B5DB
:10107000044690F8BC0301280BD0012084F8BC037F
:1010800084F83810206802F0D9FA002084F8BC03F4
:1010900010BD022010BDD0F8042400F57171104677
:1010A00001F055BC10B50446006894F8BC13012942
:1010B00006D0012184F8BC13A16A012902D008E0FE
:1010C000022010BDA169012903D0816B41F4803158
:1010D0008163206801F044FF206802F025FA0020B7
:1010E00084F8BC0310BD000010B50446D0F8040419
:1010F00001F06CFC2068D0F8001E41F00101C0F83E
:10110000001E206A002804D00248016841F0060150
:10111000016010BD10ED00E02DE9F84F04460078A5
:1011200000268D4DC00708D02868616920F0C06096
:1011300008432860606900B901262078800708D537
:101140002868A16920F0C05008432860A06900B950
:10115000012620784FF0000A00074FF0010B55D50B
:101160007D484C38016841F0805101600068DFF82B
:10117000EC8100F080500090D8F8001041F48071AC
:10118000C8F80010FFF710FA074604E0FFF70CFA62
:10119000C01B02286FD8D8F80000C005F6D56E4FE6
:1011A0001C3F386810F440701FD0A18B01F44071CF
:1011B00081421AD0386820F440716948C0F800B004
:1011C000C0F800A039603868C0070ED0FFF7ECF90E
:1011D000804641F2883905E0FFF7E6F9A0EB080107
:1011E000494548D838688007F6D5E1695A48C1F3BF
:1011F00001228438032A36D0016821F4F8110160F5
:101200003868A18BC1F30B01084338602078DFF800
:101210005491400703D594F83810C9F8E0112078AC
:10122000C106514805D50168626A21F440011143A5
:10123000016021784FF00067890609D50168A26A2C
:1012400021F0006111430160A16AB94200D1012679
:101250002178490605D50168226A21F080511143A1
:10126000016066B908E00268404B22F4F8121940A8
:101270000A430260C4E754E02068802857D15046F2
:10128000DFF8ECA0CAF86800FFF78EF9324E80460E
:101290008C3E05E0FFF788F9A0EB0800022840D853
:1012A00030680001F6D4616BC9F8D8102068314964
:1012B000C20701D062697AB1820701D5A2695AB129
:1012C000820602D5A26ABA4206D040060FD5206A2D
:1012D00068B9A06AB8420AD1D4E9010240EA821092
:1012E000227B237C120642EA0372104308602078B6
:1012F00000060AD5D4E9010240EA8210227B237C51
:10130000120642EA037210430860CAF868B0FFF799
:101310004BF9074608E000BFFFF746F9C01B02285B
:1013200002D90320BDE8F88F30680001F4D5208889
:10133000C00505D52868E16A20F000400843286010
:101340002088800505D52868216B20F400400843DB
:1013500028600020E6E700008C3802400070004062
:10136000400E47420010474294380240FFFCFF0FF6
:1013700000004742843802402DE9F0470E46050040
:1013800065D0DFF81481D8F80000F7B200F00F0044
:10139000B04207D288F80070D8F8000000F00F00C3
:1013A000B04254D128683D4C810712D5400703D57F
:1013B000206840F4E05020602878000703D52068BA
:1013C00040F4604020602068A96820F0F0000843E5
:1013D00020602878C0072DD0304968680839012876
:1013E00012D0022813D0032811D0096889070029D8
:1013F0002DDA216821F0030101432160FFF7D4F8C1
:10140000814641F2883A0EE009688903EFE70968EE
:101410008901ECE7FFF7C8F8A0EB0901514502D9B3
:101420000320BDE8F0872068696800F00C00B0EB8D
:10143000810FEFD1D8F80010404601F00F01B14202
:1014400007D90770006800F00F00B04201D00120FA
:10145000E7E72878400705D52068E96820F4E050E0
:10146000084320602878000706D52068296920F401
:10147000604040EAC100206000F03CF82168084A62
:10148000C1F30311515CC840064908600020FFF712
:10149000B3F80020C5E70000003C024008380240D5
:1014A000AC3800087C00002001480068704700004C
:1014B0007C0000200448054900680968044AC1F31B
:1014C0008221515CC84070477C00002008380240EF
:1014D000BC3800080448054900680968044AC1F39B
:1014E0004231515CC84070477C00002008380240FF
:1014F000BC380008154810B5006810F00C021448FC
:1015000013D04110042A0FD0082A0ED10F4C241FEB
:101510002268236802F03F025B0207D52068C0F30F
:101520008810A0FB010106E0084610BD2168C1F348
:101530008811A1FB00010023FEF760FE2168C1F3C2
:101540000141491C4900B0FBF1F010BD08380240D0
:101550000024F4002DE9F84F05460078DFF800B3C9
:10156000C04CC0074AD0DBF800105846C1F38101D7
:10157000012908D00068C0F3810002280AD1201D8B
:101580000068400206D52068800337D568680028C7
:1015900072D033E06868B0F5803F10D0B0F5A02F6E
:1015A000206810D020F480302060206820F4802053
:1015B00020606868A8B1FEF7F7FF06460DE02068D6
:1015C00040F48030F4E740F480202060F7E700BF6B
:1015D000FEF7EAFF801B64286FD820688003F7D5E8
:1015E0000CE0FEF7E1FF064605E000BFFEF7DCFF7A
:1015F000801B6428F0D820688003F7D42878DFF8AF
:10160000688280074FF0000940D5DBF8001058468B
:1016100011F00C0F09D00068C0F3810002280BD133
:101620008F48001F0068400206D42068800715D547
:10163000E868012820D111E0E868B8B10120C8F8B5
:101640000000FEF7B1FF064605E000BFFEF7ACFF65
:10165000801B0228C0D820688007F7D52068296938
:1016600020F0F80040EAC10020600FE0C8F80090C8
:10167000FEF79AFF064606E0EFE000BFFEF794FF94
:10168000801B022819D820688007F7D42878000723
:1016900022D5734E754869696C3679B101210160B4
:1016A000FEF782FF074604E0FEF77EFFC01B02281C
:1016B00003D830688007F7D50EE089E0C0F80090C5
:1016C000FEF772FF074604E0FEF76EFFC01B02281C
:1016D0007ED830688007F7D42878400768D5DFF8CF
:1016E00080A100270AF1380ADAF80000C0000BD404
:1016F000DAF8001041F08051CAF80010DAF8000062
:10170000012700F080500090594E3068C00510D479
:10171000306840F480703060FEF746FF009005E0CE
:10172000FEF742FF0099401A022851D83068C005E0
:10173000F6D54B4EA868683601280FD005283068CA
:1017400010D020F001003060306820F004003060DC
:10175000A868B8B1FEF728FF00900FE0306840F0AD
:101760000100F4E740F004003060F7E7FEF71CFFEB
:101770000099411A41F28830814266D8306880076A
:10178000F4D50EE0FEF710FF009007E0FEF70CFF27
:101790000099411A41F28830814256D8306880075A
:1017A000F4D42FB1DAF8001021F08051CAF80010FB
:1017B000A869D0B3DBF80010C1F3810102294CD035
:1017C0000228484607D0C8F86000FEF7EDFE00E0AA
:1017D0003BE005463CE04746C8F86000FEF7E4FE03
:1017E000064604E0FEF7E0FE801B02282DD82068A4
:1017F0008001F7D4F5E907010843E9681D4A490863
:1018000002EB0141AA6841EA82110843297C40EABF
:101810000160297D40EA01711148001F016001202B
:101820003866FEF7C1FE054605E014E0FEF7BCFE93
:10183000401B022809D820688001F7D50BE000BFC3
:10184000FEF7B2FE401B022802D90320BDE8F88F44
:1018500020688001F4D40020F8E70120F6E70000BA
:10186000083802400038024000004742800E4742DC
:10187000007000400000FFFF10B5401EB0F1807FF7
:1018800001D3012010BD4FF0E02460610F216017EB
:1018900001F06DFF0020A06107202061002010BD35
:1018A00070B5040004D094F83900002510B106E0AA
:1018B000012070BD84F83850204600F023F8242021
:1018C00084F839002068C16821F40051C1602046C5
:1018D00000F07EFA2068016921F4904101612068DE
:1018E000416921F02A0141612068C16841F4005139
:1018F000C160E563202084F8390084F83A000020B4
:1019000070BD000010B586B0044614216846FEF78D
:10191000BFFC14492068884221D11348016841F472
:1019200080210160006800F4802005900E48103886
:10193000016841F0080101600068694600F0080094
:1019400005904FF440700090022001900120029019
:1019500003200390072004900448FEF74DFD06B0D5
:1019600010BD00000048004040380240000C02401A
:10197000FEE70000F0B500230A24302537261F4675
:1019800011E000BFB4EB107F02D905EB107C01E041
:1019900006EB107C01F813C001EB430C00015B1C4B
:1019A0008CF80170DBB29342ECD3F0BD2DE9F0432B
:1019B00087B014216846FEF76BFC3B4800240168A1
:1019C00041F004010160016801F004010591016822
:1019D00041F080010160016801F08001059101681A
:1019E00041F002010160016801F002010591016806
:1019F00041F008010160016801F0080105910168EA
:101A000041F040010160016801F040010591016869
:101A100041F0010101600068244F00F001004FF423
:101A200081450590002229463846FEF7B7FDDFF8CC
:101A30008080002240214046FEF7B0FDDFF8749020
:101A40007E15002231464846FEF7A8FD3001009081
:101A50001948CDE9010469464846FEF7CDFC0095DA
:101A60000125CDE90154694638460394FEF7C4FCCC
:101A700040200090CDE90154694640460394FEF7AA
:101A8000BBFC8020CDE90004694640460294FEF785
:101A9000B3FC0096CDE90154694648460394FEF72D
:101AA000ABFC07B0BDE8F0833038024000040240D0
:101AB0000018024000080240000011100C4810B548
:101AC0000A4901604FF4E1314160002181600C223C
:101AD000C160C0E904128161C161FFF7E1FE002825
:101AE00003D0BDE81040FEF774BC10BD00480040B4
:101AF0009C01002010B500220F49104800F0A9FDFC
:101B000008B1FEF766FC0E490C4800F085FF08B1ED
:101B1000FEF75FFC0B49094800F096FB08B1FEF7A1
:101B200058FC064800F0CEFF002803D0BDE8104066
:101B3000FEF74FBC10BD000000000020DC010020BB
:101B40005C01002060000020FEE770470148FEF7BE
:101B50005BBF0000780400202DE9F04104460068D6
:101B60000E46016C00EB4615D5F8080B27692023BB
:101B70004FF40042012F08D02C4FB9424FD101043D
:101B800049D500BFC5F8082B4DE0DFF8A4C05FEAD7
:101B9000007E04F5717711D5614503D9000401D5A4
:101BA000C5F8082B2046FFF776FA3A46012120684F
:101BB00001F042FB0820C5F8080B34E05FEA806EB4
:101BC00002D5C5F8083B2EE010F0280F2BD1614557
:101BD00001D90004D6D4C6EBC60004EB8000D5F8CA
:101BE000102BD0F80412C2F312028A1AC0F8142281
:101BF000D0F808221144C0F80812F1B22046FEF7CE
:101C0000EAFD86B9D4F8100268B93A460121206885
:101C100001F012FB07E0800601D5C5F8083BF1B2E0
:101C20002046FEF7D8FD0020BDE8F0810A31544F70
:101C30000A30544F2DE9F84F0E46C1EBC60100EBB8
:101C4000810481460568D4E914103C34884202D9E5
:101C50000120BDE8F88F081AA168814200D2084629
:101C6000C01C870805EB46181BE000BFA0EB010A6B
:101C7000A068504500D282460AF10300870899F80F
:101C8000100000901FFA8AF3F2B22846E16801F0D2
:101C90005BFDE16801EB0A00E060A16901EB0A006D
:101CA000A061D8F8180980B2B84205D3D4E905017B
:101CB000814201D20028D9D1D4E90501884208D84F
:101CC00006F00F0101208840D5F834188143C5F88B
:101CD00034180020BDE770477047FEF76BBC00006A
:101CE00030B5A3B034216846FEF7D2FA14211CA8FF
:101CF000FEF7CEFA3C210DA8FEF7CAFA1D480024D3
:101D0000016841F080510160006800F0805021902E
:101D10001948016841F4404101600068022500F45F
:101D200040402190012000904FF4A02001906805D0
:101D3000CDE9065008204FF4C071CDE90801042117
:101D4000CDE90A100C956846FFF704FC0F20CDE999
:101D50001C05E802CDE91E4003211CA82094FFF7D2
:101D60000BFB202017940D900DA8FFF7D5F923B099
:101D700030BD00004038024000700040104801684B
:101D800041F4700101600F48016841F001010160F8
:101D90000C4A00210832116002680B4B1A400260A5
:101DA000031D0A4A1A60026822F480220260054874
:101DB0000C30016002495806803908607047000005
:101DC00088ED00E000380240FFFFF6FE10300024EE
:101DD0002DE9F041044600680169E26821F44051B0
:101DE000114301612169A068E269084361691143F7
:101DF00022680843D16849F20C6399430143D160DA
:101E000020684169A26921F4407111434161E2698E
:101E10006425B2F5004F9748974922684FF0320881
:101E20003FD08A4201D082427CD1FFF753FB00EBC6
:101E3000C00101EB001061688900B0FBF1F6FFF70B
:101E400049FB00EBC00101EB001061688900B0FBA9
:101E5000F1F0B0FBF5F06FF01801484306EB80019C
:101E600008EB0110B0FBF5F000F0F006FFF732FBD5
:101E700000EBC00101EB001061688900B0FBF1F0DC
:101E8000B0FBF5F006EB0016FFF724FB00EBC001FA
:101E900001EB001061688900B0FBF1F7FFF71AFB56
:101EA000D2E08A4201D082423DD1FFF713FB00EB22
:101EB000C00101EB001061684900B0FBF1F0B0FB1C
:101EC000F5F00601FFF706FB00EBC00101EB001087
:101ED00061684900B0FBF1F7FFF7FCFA00EBC001C5
:101EE00001EB001061684900B0FBF1F0B0FBF5F0C8
:101EF0006FF01801484307EB800108EBC100B0FB0D
:101F0000F5F000F0F80006EB4006FFF7E3FA00EB0F
:101F1000C00101EB001061684900B0FBF1F7FFF769
:101F2000D9FA3CE055E0FFF7C5FA00EBC00101EB40
:101F3000001061684900B0FBF1F0B0FBF5F006015C
:101F4000FFF7B8FA00EBC00101EB0010616849002F
:101F5000B0FBF1F7FFF7AEFA00EBC00101EB0010A8
:101F600061684900B0FBF1F0B0FBF5F06FF01801CB
:101F7000484307EB800108EBC100B0FBF5F000F02F
:101F8000F80006EB4006FFF795FA00EBC00101EB05
:101F9000001061684900B0FBF1F7FFF78BFA00EB26
:101FA000C00101EB001061684900B0FBF1F0B0FB2B
:101FB000F5F06FF01801484307EB800108EBC10012
:101FC000B0FBF5F000F00700216830448860BDE800
:101FD000F081FFF76FFA00EBC00101EB00106168C0
:101FE0008900B0FBF1F6FFF765FA00EBC00101EBE9
:101FF000001061688900B0FBF1F0B0FBF5F06FF004
:102000001801484306EB800108EB0110B0FBF5F026
:1020100000F0F006FFF74EFA00EBC00101EB0010F4
:1020200061688900B0FBF1F0B0FBF5F006EB00163B
:10203000FFF740FA00EBC00101EB00106168890076
:10204000B0FBF1F7FFF736FA00EBC00101EB00102F
:1020500061688900B0FBF1F0B0FBF5F06FF018019A
:10206000484307EB800108EB0110B0FBF5F000F0EE
:102070000F00A9E700140140001001402DE9F041D4
:10208000D0F89832D0F89022DAB101EB810400EB5D
:1020900084040025E6694EB1C1EBC10703EB870359
:1020A0005B6CB6FBF3F703FB176323B1C2F8145262
:1020B0000020BDE8F08100231A46E56100F08FFCA6
:1020C000F6E70220F5E770B50546D0F8904200F03B
:1020D00098FBC4F80C02D5F8900248B1D5F89412D8
:1020E000D4F80402CA6804F503719047002070BD5B
:1020F000022070BD70B504460026812100F0C7FAA9
:10210000002501212046E56200F0C1FA8221204627
:10211000C4F8585100F0BBFA2564D4F8900248B1D5
:10212000D4F8940204F5247440688047206801F0D4
:102130003DFB2560304670BD10B5D0E9A44159B1D2
:1021400094F80002FF2807D08B6894F801222146FA
:102150009847FF2084F80002002010BD0A2101806A
:1021600000487047840000204321018000487047E8
:10217000D4000020432101800048704790000020D7
:102180004321018000487047180100202DE9F041EB
:1021900004460026007C4FF40077012590B34023CD
:1021A00002228121204600F077FB4023E5620222D3
:1021B0000121204600F070FB0823032282212046E3
:1021C000C4F8585100F068FB4FF40770256401F023
:1021D00037FBC4F89002F8B10546D4F894020068C1
:1021E00080470020C5F81402C5F81802207CD5F8F5
:1021F000042298B140230121204600F059FB3046CB
:10220000BDE8F081FFE73B4602228121204600F035
:1022100043FB3B46E562CAE70126F0E73B46EAE7B7
:1022200010B5D0F8901269B1027C002AD1F80422CE
:1022300005D04023012100F03BFB002010BD4FF4EE
:102240000073F7E7022010BD02460220002902D0E9
:102250000020C2F894127047D0F89002C0F804121F
:1022600000207047D0F89002C0F81022C0F8081281
:10227000002070472DE9FC410546D0F890720020FF
:102280008DF80000ADF80400064608780C4610F002
:10229000600121D020293BD1E288AAB100066078F4
:1022A00007D5D5F894128B6839469847E2883946A5
:1022B00026E087F80002A07987F80102E288394613
:1022C000284600F06AF828E0D5F8941260780022D9
:1022D0008B682146984720E0607820B10A2809D011
:1022E0000B2815D110E095F87402032810D10222B2
:1022F00001A905E095F87402032809D10122694675
:10230000284600F064F808E095F87402032804D029
:102310002146284600F036F802263046BDE8FC810A
:1023200010B5D0F89012A1B1D1F814220AB1012051
:1023300010BD0122C1F81422D1F810220263B1F8B5
:10234000102293B2D1F80822812100F048FB00202E
:1023500010BD022010BD10B5D0F88C2252689047F5
:10236000002010BD134610B50A46002100F0A0FA67
:10237000002010BD134610B50A46002100F02FFBC7
:10238000002010BD10B50446802100F00DFB204652
:10239000BDE81040002100F007BB10B50323C0F8D2
:1023A0004821C0F86C32C0F84C2113460A4600217F
:1023B00000F07EFA002010BD10B505210023C0F802
:1023C0006C121A46194600F073FA002010BD10B5C1
:1023D0000223C261C0F86C32026213460A46002131
:1023E00000F0FDFA002010BD10B504210023C0F854
:1023F0006C121A46194600F0F2FA002010BD0000D7
:1024000010B50A46024903A000F0F3F8004810BDD9
:102410008008002043444320436F6E6669670000D4
:1024200012200880004870472400002010B50A469A
:10243000024903A000F0DDF8004810BD800800202C
:1024400043444320496E7465726661636500000011
:1024500004200880004870472000002010B50A467C
:10246000024903A000F0C5F8004810BD8008002014
:1024700053544D6963726F656C656374726F6E69F6
:102480006373000010B50A46024903A000F0B1F8DA
:10249000004810BD8008002053544D333220566947
:1024A000727475616C20436F6D506F727400000020
:1024B00010B51A2008800A480168001D0468001D34
:1024C0000068081809D008220649FFF753FA0549A1
:1024D000042210312046FFF74DFA0248801E10BD3D
:1024E000107AFF1F460000200C200880004870472B
:1024F00038000020F8B5044648880D46010A062930
:102500004CD006DC01290DD0022910D003294FD16F
:102510001BE007294AD00F294AD1D4F88812207C21
:10252000CA6937E0D4F88812207C0A6832E0207C3F
:1025300002260028D4F88C0205D0C16A6846884774
:102540000146467041E0816AF8E7C0B206282FD202
:10255000DFE800F003080D12171CD4F88812207C65
:102560004A6817E0D4F88812207C8A6812E0D4F810
:102570008812207CCA680DE0D4F88812207C0A6991
:1025800008E0D4F88812207C4A6903E0D4F8881265
:10259000207C8A6969469047014616E0207C38B95C
:1025A000D4F88C02416B68468847F5E7207C20B15F
:1025B00029462046FFF7E6FEF8BDD4F88C02016BF1
:1025C00068468847014607204870BDF8000048B1BA
:1025D000EA8852B1824200D90246ADF80020204676
:1025E000FFF7F5FEE8880028E6D12046FFF7FCFE5D
:1025F000F8BD70B5002300281ED00446002502E077
:102600006D1CEDB2641C2678002EF9D1022404EB77
:10261000450414801278CA545B1C0322CA54002457
:102620005B1C06E0CA545B1CDAB28C54521CD3B259
:10263000401C0278002AF5D170BD01004FF0000067
:1026400004D0012901D0022901D0022070470120C5
:10265000704710B580B1D0F88C3213B10023C0F8A8
:102660008C3209B1C0F88812012180F8741202700E
:1026700000F0CCF8002010BD022010BD10B5D0F83D
:102680009802FEF7DCF8BDE81040FFF7D6BF10B5A2
:10269000D0F89802FEF7ADF8BDE81040FFF7CDBFC7
:1026A0002DE9F0411746044651B1D4F88C02426935
:1026B0001AB194F87402032851D00220BDE8F081C9
:1026C000D4F86C32002504F11400022B03D0042B43
:1026D0003AD0C3B33CE0D0E903639E4207D9F11A74
:1026E000C1608AB239462046FFF744FE12E0806896
:1026F000B0FBF3F103FB110199B9984211D3D4F85F
:10270000701288420DD2002211462046FFF732FE99
:10271000C4F8705200231A461946204600F0C8F843
:1027200016E0D4F88C02C16829B194F87402032829
:1027300001D1204688478021204600F035F9204607
:10274000FFF73AFE04E0FFE78021204600F02CF975
:1027500094F87802012804D184F8785201E02046E8
:1027600090470020AAE770B51546044649B1D4F851
:102770008C0282691AB194F87402032830D00220C6
:1027800070BDD4F86C1204F5A070032902D005299D
:102790001ED027E0D0E903218A420BD9531AC36027
:1027A0000846834200D303469AB229462046FFF7E3
:1027B000D9FD17E0D4F88C02016929B194F87402AC
:1027C000032801D1204688472046FFF70DFE09E087
:1027D00000200146C4F86C02204600F0E5F801E054
:1027E00020469047002070BD0020704710B50121A1
:1027F00080F87412D0F88C2201795268904700203A
:1028000010BDD0F89802FEF748B8000010B5017866
:1028100049BB16490222C1F80404C0F898124FF0CF
:10282000A0400860062048600020C1E903208A61BA
:102830000122C1E90720C1E90902C1E90B200846CC
:10284000FEF738FB08B1FDF7C4FD80210748FDF70E
:102850008FFF402200210548FDF78EFF80220121D5
:102860000248FDF789FF002010BD00007804002019
:102870000A0601F07F01D0F89802C1EBC10100EB1C
:10288000810002D590F83E00704790F8FE01704735
:10289000002070470020704710B51C461346D0F842
:1028A00098022246FEF702F8BDE81040FFF7C5BEC9
:1028B00010B5D0F89802FEF729F8BDE81040FFF7F0
:1028C000BCBE70B50022044640231146FFF7E4FF6A
:1028D00040260125C4F8506133460022802120465D
:1028E000C4F84451FFF7D8FF6662A56184F87452BA
:1028F0000020C4F86C026060C4F87C02D4F8900236
:1029000028B1D4F88C02002142682046904700206C
:1029100070BD90F8751280F874120020704710B5E1
:1029200090F87412032904D1D0F88C12C96901B14E
:102930008847002010BD01740020704710B5D0F802
:102940009802FEF794FBBDE81040FFF776BE70B525
:10295000044600F52070054600F04AF80120C4F84E
:102960006C02B4F88602C4F8700294F8800210F089
:102970001F010AD001290DD0022910D000F08001DA
:10298000204600F011F8002070BD2946204600F0D6
:102990009EF8F8E72946204600F0CAF9F3E72946F1
:1029A000204600F01DF9EEE710B5D0F89802FDF7CB
:1029B000D1FFBDE81040FFF740BE10B5D0F8980237
:1029C000FEF770FBBDE81040FFF737BE90F87412B9
:1029D00080F87512042180F874120020704710B539
:1029E000D0F89802FDF7F0FFBDE81040FFF725BED4
:1029F0000A7802704A7842708A78CB7802EB032218
:102A000042800A794B7902EB032282808A79C97964
:102A100002EB0121C18070470246002011B1C2F8CB
:102A20008C1270470220704710B5D0F88C22022417
:102A30001AB11268904700B90024204610BD00006A
:102A400070B50E461E4D897804462970012931D88B
:102A500094F8740202280BD003280FD03146204688
:102A6000FFF790FC29782046BDE87040FFF773BC63
:102A7000D9B10320616084F8740209E071B1606823
:102A8000884212D0C1B22046FFF765FC2978616008
:102A90002046FFF7C9FF02280CD006E0022084F888
:102AA000740220466160FFF756FC2046BDE8704086
:102AB000FFF79ABC31462046BDE87040FFF762BC84
:102AC0008000002010B5FFF778FF002010BD2DE931
:102AD000F0410A78002612F0600208D0202A01D0C6
:102AE000402A70D1D0F88C22926890476DE04B78E4
:102AF000002201250A2B66D2DFE803F0405D65570E
:102B0000650805652C29FFF7F5FC5EE0044688881A
:102B1000D8B9C888C8B94888802816D200F07F077D
:102B200094F87402032810D084F87672394620464F
:102B3000FFF704FF2046FFF757FC1FB1022084F87F
:102B4000740242E084F874523FE020463BE0FFF715
:102B500077FF3AE0CB88012B35D190F87432012B06
:102B600004D0022B02D0032B2DD104E0826001227D
:102B700000F1080116E00122011D13E090F8742213
:102B8000012A03D0022A01D0032A1CD1CA88022AB2
:102B900019D1C560D0F87C1209B10321C1600222AD
:102BA00000F10C01FFF713FC0FE0498801290CD15B
:102BB000C0F87C5211E090F87432012B08D0022B3F
:102BC00006D0032B04D0FFF7DDFB3046BDE8F081D3
:102BD00049880129F9D1C0F87C22FFF705FCF4E708
:102BE0002DE9F0410A46044610780027097910F0D3
:102BF00060030AD0202B01D0402B50D1D4F88C0296
:102C000011468368204698478FE0C0F341100128A1
:102C100006D05078D0B301282AD003283FD107E04E
:102C2000D4F88C02114683682046BDE8F04118476D
:102C300094F87402022802D0032872D10AE071B31A
:102C400080296ED02046FFF7AFFE80212046FFF797
:102C5000ABFE6AE0508838B931B1802904D0D08801
:102C600010B92046FFF7A0FE2046FFF7BDFB5CE051
:102C700094F874020228E2D0032852D1508898BBFD
:102C80004806F1D02046FFF7F9FCEDE7FFE794F89E
:102C900074020026022803D0032842D112E040E04B
:102CA00009B180293DD1080601F07F0000EB8000CA
:102CB00004EB800101D5143101E001F5A07102227D
:102CC0000E602AE0080601F00F0000EB800004EB24
:102CD00080000AD5806920B301F07F0000EB8000FE
:102CE00004EB800514350BE01FE0D0F84401C0B1BF
:102CF00001F07F0000EB800004EB800505F5A07576
:102D000041B1802906D02046FFF7B2FD10B1012065
:102D1000286000E02E60022229462046FFF757FB7C
:102D200003E011462046FFF72DFB3846BDE8F08151
:102D300070B5054608780C4610F0600003D02028D6
:102D400001D0402816D195F87402012803D002283A
:102D500001D003280ED1207901280BD8D5F88C0298
:102D6000826828469047E188014306D12846FFF74C
:102D70003BFB02E02846FFF705FB002070BD00008A
:102D800070B50A78012302F00F054E78AB401B4C5A
:102D9000D0F81C58012E17D045EA0343C0F81C3860
:102DA00000EB4210D0F8002B12040BD4D0F8002B0B
:102DB0000B89C978C3F30A031A4344EA81410A43E1
:102DC000C0F8002B002070BD9BB21D43C0F81C58FA
:102DD00000EB4210D0F800391B04F3D4D0F80039CE
:102DE0000D89C978C5F30A0589042B4341EA82514C
:102DF0000B432343C0F80039E4E7000000800010D3
:102E0000D0F800196FF30A01C0F80019D0F80818BB
:102E1000C1F34101022905D1D0F8001941F00301A5
:102E2000C0F80019D0F8041841F48071C0F80418F3
:102E30000020704770B5044606990A9E049D0D98BF
:102E4000012916D0E06840F04000E060204600F024
:102E50002BF8A16B1EB321F48031A163012D07D1A2
:102E6000A16841F00601A160A16841F02001A160C4
:102E700070BDA16B21F48031A163E168094A114062
:102E8000E160E16821F44011E160012803D1E068CC
:102E900040F48010E060204600F006F8DEE741F4E0
:102EA0008031DAE7BFFFBDFF01220C4902E0521C6E
:102EB0008A420BD80369002BF9DA026942F0010259
:102EC0000261012204E0521C8A4201D903207047AA
:102ED0000369DB07F7D1002070470000400D0300B5
:102EE00030B50B784D78012203F00F0402FA04F498
:102EF000012DD0F83C5817D025EA0444C0F83C48CE
:102F0000D0F81C48097801F00F018A4024EA0241F8
:102F1000C0F81C1800EB4310D0F8001B0E4A1140FB
:102F2000C0F8001B002030BDA4B2A543C0F83C5837
:102F3000D0F81C48097801F00F018A4091B28C4307
:102F4000C0F81C4800EB4310D0F80019034A1140A8
:102F5000C0F80019E6E700000078F3EF007833ECE2
:102F600010B5D0F8041821F00201C0F804180320AD
:102F7000FDF730FA002010BD10B5D0F8041841F06C
:102F80000201C0F804180320FDF724FA002010BD48
:102F90002DE9F04F0025DDE90BCB0E460446DDF8A8
:102FA0004090099F2846294604EB8002C2F804118C
:102FB000401C0F28F8D32046A06BB9F1000F13D0A6
:102FC00040F40012A26308468846C4F8000ED4F804
:102FD00000182046C4F80018BCF1010F10D0D0F83A
:102FE000001841F0030110E020F40012A2632068F1
:102FF00040F040022260206840F080022260E2E758
:10300000D0F800180BB141F00101C0F800181021F0
:1030100000F0A0FA00B10125204600F08BFA00B1C3
:1030200001254046C4F81088C4F81488C4F81C88E8
:1030300000214FF000634FF090484FF67F3A14E0C4
:1030400004EB4112D2F800C9BCF1000F06DA11B14D
:10305000C2F8008904E0C4F8003901E0C2F80009B0
:10306000C2F81009C2F808A9491C8E42E8D800210C
:1030700015E000BF04EB4112D2F800CBBCF1000F09
:1030800006DA11B1C2F8008B04E0C4F8003B01E09D
:10309000C2F8000BC2F8100BC2F808AB491C8E42F4
:1030A000E8D8D4F8101821F480722146C4F810280A
:1030B000012F08D1134AC1F83028D1F83018124A2C
:1030C0001143C4F83018A0616FF0804060611FB9EF
:1030D000A06940F01000A061A0690C490843A061FC
:1030E000BBF1000F03D0A06940F00800A061B9F166
:1030F000010F03D1A06906490843A0612846BDE835
:10310000F08F0000000180000300010000383C80C7
:1031100004000040816821F00101816000207047B7
:1031200070B50D784E78434CEBB200EB4313012E93
:103130001FD0D3F8100B6FF31200C3F8100BD3F8A5
:10314000100B2040C3F8100B486908B1886848612B
:10315000D3F8100B40F40020C3F8100BD3F8100B79
:103160008C68C4F312042043C3F8100B012A55D015
:1031700058E04E69002ED3F8106932D06FF3120672
:10318000C3F81069D3F810692640C3F810694E6976
:103190008C68A64200D94C61D3F8104944F400244D
:1031A000C3F81049D3F810494E69C6F312063443E8
:1031B000C3F81049012A22D000EB4512D2F8003999
:1031C00043F00443C2F800394A6932B3D0F83428D6
:1031D000097801F00F03012199400A43C0F834280F
:1031E00026E02640C3F81069D3F8104944F40024BF
:1031F000C3F81049D3F810496FF31204D8E70969EE
:1032000019B100EB4512C2F8141900EB4510D0F8C3
:10321000001941F00441C0F8001909E0C86808B17C
:10322000C3F8140BD3F8000B40F00440C3F8000BB4
:10323000002070BDFFFF07E010B5036C134CA342E4
:1032400003D9D0F8003B002B1EDB0023C0F8103B55
:10325000D0F8103B43F40023C0F8103BD0F8103BEB
:1032600043F01803C0F8103BD0F8103B43F0C043C4
:10327000C0F8103B012907D1C0F8142BD0F8001B6F
:1032800041F08021C0F8001B002010BD0A30544FCF
:103290004A780B78012A00EB43100BD0D0F8002BB2
:1032A00022F40012C0F8002BC978032914D0022997
:1032B00012D017E0D0F8002922F40012C0F800293B
:1032C000C978032901D002290CD1D0F8001941F0A6
:1032D0008051C0F8001905E0D0F8001B41F0805182
:1032E000C0F8001B002070470A784B78D1B200EB81
:1032F0004110012B12D0D0F8001B002906DB2AB1A7
:10330000D0F8001B21F08041C0F8001BD0F8001B52
:1033100041F40011C0F8001B00207047D0F80019DC
:10332000002906DB2AB1D0F8001921F08041C0F84D
:103330000019D0F8001941F40011C0F80019EBE7AA
:10334000F8B50C784F78774DE3B26FF0604600EB3C
:103350004313012F26D0D3F8104B6FF31204C3F898
:10336000104BD3F8104B2C40C3F8104B4C69002C79
:1033700074D08D682C44641EB4FBF5F4D3F8105B54
:10338000A4B206EAC4463543C3F8105BD3F8105B19
:103390008E686643C6F312042543C3F8105B012A06
:1033A00071D0A6E04F691FB3D3F810796FF31207FD
:1033B000C3F81079D3F810792F40C3F810794F690A
:1033C0008D682F447F1EB7FBF5F506EAC545D3F897
:1033D00010693543C3F81059D3F810594E69C6F334
:1033E00012063543C3F81059CD78012D10D01BE0DB
:1033F000D3F810692E40C3F81069D3F8105945F47A
:103400000025C3F81059D3F810596FF3120509E0DD
:10341000D3F8105925F0C045C3F81059D3F8105906
:1034200045F00055C3F81059012A18D000EB441399
:10343000D3F8004944F00444C3F80049CC78012C87
:103440002FD04A6962B3D0F83428097801F00F030D
:10345000012199400A43C0F8342860E036E00A6947
:103460001AB100EB4413C3F81429C97801290FD10C
:10347000D0F80818C90500EB4411D1F8002903D48D
:1034800042F0005202E030E042F08052C1F80029E0
:1034900000EB4410D0F8001941F00441C0F80019C5
:1034A0003DE0D0F80848E405D3F8004902D444F0E0
:1034B000005401E044F08054C3F8004900928A8A25
:1034C00093B20A78C96800F03FF928E0D3F8104BAE
:1034D0008D68C5F312052C43C3F8104BD3F8104B7D
:1034E00044F40024C3F8104B59E7CA680AB1C3F882
:1034F000142BC97801290CD1D0F80808C005D3F8DD
:10350000000B02D440F0005001E040F08050C3F8BE
:10351000000BD3F8000B40F00440C3F8000B002070
:10352000F8BD0000FFFF07E0816841F00101816004
:1035300000207047002110220261054A491C914277
:1035400001D9032070470369DB06F7D400207047D8
:10355000400D03000022202343EA81110161054947
:10356000521C8A4201D90320704703699B06F7D495
:1035700000207047400D0300D0F8080810F0060046
:1035800004D0022803D0062801D00F207047022063
:103590007047406900F001007047D0F81818D0F863
:1035A0001C08084080B27047D0F81818D0F81C08E2
:1035B0000840000C704710B5D0F81038D0F8342807
:1035C00001F00F0400EB4110E24002F00102D0F8DC
:1035D000080943EAC212104010BD00EB4111D1F8B6
:1035E000081BD0F8140808407047416980690840FA
:1035F0007047D21C10B59308002200F5805002E0FD
:103600000468521C10C19A42FAD3084610BD10B586
:10361000C26822F0C042C260012902D029B1012053
:1036200010BDC16841F0005102E0C16841F0804125
:10363000C1603220FCF7CEFE002010BDD0F800287B
:1036400022F4FE62C0F80028D0F800284FF4FE6390
:1036500003EA01110A43C0F8002800207047000067
:10366000022A3ED1264A274B0A449A4201D20F2110
:1036700038E0254A254B0A449A4201D20E2131E016
:10368000234A244B0A449A4201D20D212AE0224ABD
:10369000224B0A449A4201D20C2123E0204A214BBA
:1036A0000A449A4201D20B211CE01F4A1F4B0A44D4
:1036B0009A4201D20A2115E01D4A1E4B0A449A4241
:1036C0000FD31D4A1D4B0A449A4201D2082109E03A
:1036D0001B4A11441B4A914201D2072102E00621F4
:1036E00000E00921C26822F47052C260C2684FF43F
:1036F000705303EA81210A43C26000207047000032
:10370000405327FF00350C00401E1BFF40420F00B6
:1037100000DC0BFF804F1200808CF9FE20D61300D6
:1037200060B6E5FE60E3160000D3CEFE40771B00D6
:10373000C05BB3FEC091210000CA91FE2075380025
:10374000E05459FEE09C410010B5029C64B9DB1CBA
:103750009C0800EB0230002300F5805002E004C911
:1037600002605B1CA342FAD3002010BDFEE70907EC
:10377000090E002804DB00F1E02080F800147047F7
:1037800000F00F0000F1E02080F8141D704702E007
:1037900008C8121F08C1002AFAD1704770470020DC
:1037A00001E001C1121F002AFBD1704710B50028AB
:1037B00021D0114B0022001F196803E0814203D879
:1037C0000A4649680029F9D152B11368841A9C420B
:1037D00004D1006818441060104602E0506000E018
:1037E000186039B102680B1A934203D10B681A446E
:1037F00002604968416010BD940100201FB5FCF7CC
:10380000E1FEFEF76DFAFEF7D1F8FEF757F9FEF785
:1038100071F94FF47A7406A30FCB8DE80F001021D5
:103820006846FCF7BFFD2046FCF7D4FDF3E7000037
:1038300048656C6C6F2C20576F726C64210D0A0008
:10384000F0B50B30154D20F007010024144A0FE0AD
:1038500003688B420BD38B4205D95E1A4318476825
:10386000C3E9006700E04368136002C004E0021D82
:1038700010680028ECD12046002802D1286808B141
:103880000020F0BD064A07481060074A121A22F0CD
:103890000702C0E9002401202860D7E79801002032
:1038A00094010020841A0020D01C00200000000099
:1038B00000000000010203040607080900000000E0
:1038C00001020304E4380008000000209C0100000D
:1038D00008030008B43900089C010020341F0000D0
:1038E0009E3700081321241B0851041A5D041A8511
:1038F000041AB1041A01041A2D041AE904100B0465
:1039000003090412010102020216408304405726F3
:10391000020102030114050F0C1C010710172103FB
:103920001A1A031369031B0865041A61041A8D042B
:10393000193B1182105324F4130A0629472A401C0C
:103940001C090243631125C03209041977120113BF
:10395000052416100105240118090104240202059A
:103960002406781505820308151009040133020A9C
:103970001D07050102432C070581070938442A4029
:10398000072A8107112B0907440A3B0444138D21A0
:103990001408F5201408752242081A39101A7D10EF
:1039A0001AC704C11A75181A69041A81041A5D0429
:0439B0008100000092
:04000005080001C529
:00000001FF
