:020000040800F2
:1000000050090020D9010008231500082513000815
:100010002115000809030008271D00080000000042
:10002000000000000000000000000000271500088C
:100030000B03000800000000251500082915000822
:10004000F3010008F3010008F3010008F3010008C0
:10005000F3010008F3010008F3010008F3010008B0
:10006000F3010008F3010008F3010008F3010008A0
:10007000F3010008F3010008F3010008F301000890
:10008000F3010008F3010008F3010008F301000880
:10009000F3010008F3010008F3010008F301000870
:1000A000F3010008F3010008F3010008F301000860
:1000B000F3010008F3010008F3010008F301000850
:1000C000F3010008F3010008F3010008F301000840
:1000D000F3010008F3010008551A0008F3010008B5
:1000E000F3010008F3010008F3010008F301000820
:1000F000F3010008F3010008F3010008F301000810
:1001000000000000F3010008F3010008F3010008FB
:100110000000000000000000F3010008F3010008E7
:10012000F3010008F3010008F3010008F3010008DF
:10013000F3010008F3010008F3010008F3010008CF
:10014000F3010008F3010008F3010008F3010008BF
:10015000F3010008F3010008F3010008F3010008AF
:10016000F3010008F3010008000000000000000097
:10017000000000000000000000000000000000007F
:10018000F3010008F3010008000000000000000077
:10019000F3010008F3010008000000000000000067
:1001A000000000000000000000000000000000004F
:1001B000F30100080000000000000000F301000847
:1001C000F3010008DFF80CD000F08CF8004800477D
:1001D000E5200008500900200648804706480047EF
:1001E000FEE7FEE7FEE7FEE7FEE7FEE7FEE7FEE7E7
:1001F000FEE7FEE7C9150008C50100082DE9F05F1C
:100200000546002092469B46884606468146402485
:100210001BE0284641464746224600F053F8534625
:100220005A46C01A914110D311461846224600F092
:100230003AF82D1A67EB01084F46224601200021AB
:1002400000F031F817EB00094E41201EA4F1010423
:10025000DFDC484631462A464346BDE8F09F40EA87
:1002600001039B0703D009E008C9121F08C0042A34
:10027000FAD203E011F8013B00F8013B521EF9D21B
:100280007047D2B201E000F8012B491EFBD2704743
:100290000022F6E710B513460A4604461946FFF752
:1002A000F0FF204610BD202A04DB203A00FA02F1BC
:1002B000002070479140C2F1200320FA03F3194354
:1002C00090407047202A04DB203A21FA02F00021F6
:1002D000704721FA02F3D040C2F120029140084356
:1002E00019467047064C074D06E0E06840F00103F0
:1002F00094E8070098471034AC42F6D3FFF766FF46
:100300006021000880210008FEE77047704790F8E0
:100310003510022903D08021416501207047052155
:1003200080F835100068016821F0010101600020AB
:100330007047000070B5044600F0ECF80546601CFC
:1003400002D004480078044400F0E4F8401BA042C6
:10035000FAD370BD080000202DE9F84FDFF874B122
:1003600000224FF001084FF0030A4FF00F090BF184
:10037000040E00BF0B6808FA02F42340A3426ED1BA
:100380004D68022D01D0122D0ED1D50800EB850C41
:10039000DCF820505607F70E09FA07F6B5430E6948
:1003A000BE402E43CCF82060066855000F790AFA4B
:1003B00005FC07F0030726EA0C06AF403743076049
:1003C0004E68012E05D0022E03D0112E01D0122E20
:1003D0000ED18668CF6826EA0C06AF4037438760A7
:1003E0004668A6430C79C4F3001494403443446037
:1003F000C4688E6824EA0C04AE402643C6604C688C
:10040000E40060D5344C256845F4804525602468B7
:1004100022F0030504F480440094304C2E19D6F8E1
:10042000084895072F0F09FA07F5AC432C4DA84251
:1004300001D100251FE02B4DA84201D101251AE072
:10044000294DA84201D1022515E0284DA84201D12D
:10045000032510E0264DA84202D104250BE032E02E
:10046000244DA84201D1052505E0234DA84201D124
:10047000062500E00725BD402543C6F80858DBF8EF
:1004800000405D464E689C43F60300D51C432C603B
:10049000DEF8004075464E689C43B60300D51C4309
:1004A0002C600C4D08352C684E689C43F60200D534
:1004B0001C432C60074D0C352C684E689C43B602DB
:1004C00000D51C432C60521C102AFFF453AFBDE82A
:1004D000F88F0000003C01404438024000300140E9
:1004E000000002400004024000080240000C0240EC
:1004F000001002400014024000180240426931EA34
:10050000020200D10904816170470AB1816170471C
:100510000904FBE7014880687047000008000020DC
:100520000248816802781144816070470800002009
:100530000B4810B5016841F400710160016841F495
:1005400080610160016841F480710160032000F066
:100550006FF8002000F006F800F024F8002010BD2D
:10056000003C024070B50D4D04464FF47A71287876
:10057000B1FBF0F00A490968B1FBF0F000F0DAFCD9
:1005800048B9102C07D200222146501E00F030F846
:1005900000206C6070BD012070BD000008000020CC
:1005A000140000200A4808B5016841F48041016048
:1005B000006800F4804000900548001F016841F089
:1005C00080510160006800F08050009008BD00007C
:1005D00044380240002809DB00F01F02012191404D
:1005E0004009800000F1E020C0F8001170470000D1
:1005F000F0B40E4B1B680C46C3F30223C3F107058E
:10060000042D00D90425191D072901D2002300E07B
:10061000DB1E012606FA05F1491E214099409E4045
:10062000761E16403143F0BC01F08EBB0CED00E0AD
:10063000064900F0070208684FF6FF03184040EA39
:100640000220034A10430860704700000CED00E0F0
:100650000000FA0501220168C0F8FC23002280F89E
:10066000F423886940F000608861486D024A1043B5
:100670004865002070470000030000102DE9F0419C
:100680008AB0040005D094F8BD032668002520B187
:1006900008E001200AB0BDE8F08184F8BC53204690
:1006A00000F064F8032084F8BD03F06BC00500D4AB
:1006B0002561206801F0F8FA04F11001282288462B
:1006C0006846FFF7CCFD94E80F0001F0C9F9022657
:1006D000C8BB0021206801F00FFB002001270EE0BD
:1006E000C0EBC00104EB810181F83D7001F83C0FC3
:1006F000C880CD708D60CD60401CC0B24D61616816
:100700008142EDD8002011E0C0EBC00104EB810173
:1007100081F8FD5181F8FC0181F8FF51C1F80452C4
:10072000C1F80852401CC0B2C1F810526168814241
:10073000EAD8282241466846FFF791FD94E80F0069
:1007400001F0F0F910B184F8BD63A2E784F83850E5
:1007500084F8BD73606A012802D12046FFF77AFF52
:10076000206801F0D3F9002094E7000010B586B0AE
:10077000044614216846FFF78BFD2068B0F1A04FB6
:1007800027D115480021026842F00102026000688A
:1007900000F0010005904FF4E85000900220CDE9F0
:1007A0000101032003900A20049069460B48FFF7DB
:1007B000D3FD0948001D016841F080010160064831
:1007C0001430016841F480410160006800F4804009
:1007D000059006B010BD0000303802400000024015
:1007E0002DE9F84F0446007800268D4DC00708D04B
:1007F0002868616920F0C06008432860606900B91A
:1008000001262078800708D52868A16920F0C0500B
:1008100008432860A06900B9012620784FF0000A3B
:1008200000074FF0010B55D57D484C38016841F069
:10083000805101600068DFF8EC8100F0805000908A
:10084000D8F8001041F48071C8F80010FFF762FE7C
:10085000074604E0FFF75EFEC01B02286FD8D8F8F9
:100860000000C005F6D56E4F1C3F386810F440708C
:100870001FD0A18B01F4407181421AD0386820F456
:1008800040716948C0F800B0C0F800A0396038680D
:10089000C0070ED0FFF73EFE804641F2883905E0E2
:1008A000FFF738FEA0EB0801494548D838688007B3
:1008B000F6D5E1695A48C1F301228438032A36D0BB
:1008C000016821F4F81101603868A18BC1F30B01B4
:1008D000084338602078DFF85491400703D594F836
:1008E0003810C9F8E0112078C106514805D50168D3
:1008F000626A21F440011143016021784FF00067E2
:10090000890609D50168A26A21F0006111430160DE
:10091000A16AB94200D101262178490605D50168AE
:10092000226A21F080511143016066B908E0026833
:10093000404B22F4F81219400A430260C4E754E025
:100940002068802857D15046DFF8ECA0CAF868002C
:10095000FFF7E0FD324E80468C3E05E0FFF7DAFD02
:10096000A0EB0800022840D830680001F6D4616B83
:10097000C9F8D81020683149C20701D062697AB13C
:10098000820701D5A2695AB1820602D5A26ABA428B
:1009900006D040060FD5206A68B9A06AB8420AD1CD
:1009A000D4E9010240EA8210227B237C120642EA4B
:1009B000037210430860207800060AD5D4E90102CA
:1009C00040EA8210227B237C120642EA0372104323
:1009D0000860CAF868B0FFF79DFD074608E000BF51
:1009E000FFF798FDC01B022802D90320BDE8F88F4D
:1009F00030680001F4D52088C00505D52868E16A73
:100A000020F00040084328602088800505D528682C
:100A1000216B20F40040084328600020E6E7000036
:100A20008C38024000700040400E474200104742A0
:100A300094380240FFFCFF0F000047428438024018
:100A40002DE9F0470E46050065D0DFF81481D8F88F
:100A50000000F7B200F00F00B04207D288F8007033
:100A6000D8F8000000F00F00B04254D128683D4C87
:100A7000810712D5400703D5206840F4E05020607C
:100A80002878000703D5206840F460402060206883
:100A9000A96820F0F000084320602878C0072DD016
:100AA000304968680839012812D0022813D0032879
:100AB00011D00968890700292DDA216821F0030186
:100AC00001432160FFF726FD814641F2883A0EE09E
:100AD00009688903EFE709688901ECE7FFF71AFD68
:100AE000A0EB0901514502D90320BDE8F087206839
:100AF000696800F00C00B0EB810FEFD1D8F800105E
:100B0000404601F00F01B14207D90770006800F0BC
:100B10000F00B04201D00120E7E72878400705D553
:100B20002068E96820F4E050084320602878000736
:100B300006D52068296920F4604040EAC1002060A1
:100B400000F036F82168084AC1F30311515CC8402F
:100B5000064908600020FFF705FD0020C5E70000FA
:100B6000003C0240083802404821000814000020E0
:100B70000448054900680968044AC1F38221515CB0
:100B8000C84070471400002008380240582100086F
:100B90000448054900680968044AC1F34231515CC0
:100BA000C84070471400002008380240582100084F
:100BB000154810B5006810F00C02144813D041100D
:100BC000042A0FD0082A0ED10F4C241F2268236854
:100BD00002F03F025B0207D52068C0F38810A0FB3B
:100BE000010106E0084610BD2168C1F38811A1FB90
:100BF00000010023FFF702FB2168C1F30141491CFA
:100C00004900B0FBF1F010BD083802400024F400A8
:100C10002DE9F84F05460078DFF800B3C04CC00757
:100C20004AD0DBF800105846C1F38101012908D0F1
:100C30000068C0F3810002280AD1201D006840022C
:100C400006D52068800337D56868002872D033E065
:100C50006868B0F5803F10D0B0F5A02F206810D0A4
:100C600020F480302060206820F4802020606868B4
:100C7000A8B1FFF74FFC06460DE0206840F4803035
:100C8000F4E740F480202060F7E700BFFFF742FC64
:100C9000801B64286FD820688003F7D50CE0FFF72D
:100CA00039FC064605E000BFFFF734FC801B6428D2
:100CB000F0D820688003F7D42878DFF868828007AE
:100CC0004FF0000940D5DBF80010584611F00C0F2A
:100CD00009D00068C0F3810002280BD18F48001FA3
:100CE0000068400206D42068800715D5E86801280E
:100CF00020D111E0E868B8B10120C8F80000FFF782
:100D000009FC064605E000BFFFF704FC801B022833
:100D1000C0D820688007F7D52068296920F0F8003E
:100D200040EAC10020600FE0C8F80090FFF7F2FB36
:100D3000064606E0EFE000BFFFF7ECFB801B022851
:100D400019D820688007F7D42878000722D5734E79
:100D5000754869696C3679B101210160FFF7DAFBEA
:100D6000074604E0FFF7D6FBC01B022803D8306813
:100D70008007F7D50EE089E0C0F80090FFF7CAFBC6
:100D8000074604E0FFF7C6FBC01B02287ED8306888
:100D90008007F7D42878400768D5DFF880A10027BE
:100DA0000AF1380ADAF80000C0000BD4DAF80010B3
:100DB00041F08051CAF80010DAF80000012700F075
:100DC00080500090594E3068C00510D4306840F40F
:100DD00080703060FFF79EFB009005E0FFF79AFB04
:100DE0000099401A022851D83068C005F6D54B4EFC
:100DF000A868683601280FD00528306810D020F088
:100E000001003060306820F004003060A868B8B19C
:100E1000FFF780FB00900FE0306840F00100F4E73E
:100E200040F004003060F7E7FFF774FB0099411AC7
:100E300041F28830814266D830688007F4D50EE0F0
:100E4000FFF768FB009007E0FFF764FB0099411A89
:100E500041F28830814256D830688007F4D42FB1EF
:100E6000DAF8001021F08051CAF80010A869D0B358
:100E7000DBF80010C1F3810102294CD0022848465A
:100E800007D0C8F86000FFF745FB00E03BE00546EF
:100E90003CE04746C8F86000FFF73CFB064604E02C
:100EA000FFF738FB801B02282DD820688001F7D47B
:100EB000F5E907010843E9681D4A490802EB0141C9
:100EC000AA6841EA82110843297C40EA0160297D31
:100ED00040EA01711148001F016001203866FFF7E8
:100EE00019FB054605E014E0FFF714FB401B022840
:100EF00009D820688001F7D50BE000BFFFF70AFB97
:100F0000401B022802D90320BDE8F88F2068800129
:100F1000F4D40020F8E70120F6E70000083802408A
:100F20000038024000004742800E474200700040F7
:100F30000000FFFF10B5401EB0F1807F01D30120FB
:100F400010BD4FF0E02460610F21601700F0FCFE3F
:100F50000020A06107202061002010BD7047000024
:100F600070B5026804461068D168536910F00F0F1D
:100F700050D003F0010501F4907635435DD0C207EF
:100F800005D0CA0503D5E26B42F00102E2634207D5
:100F900005D5DA0703D0E26B42F00202E263820772
:100FA00005D5DA0703D0E26B42F00402E2630207E0
:100FB00005D5DA0703D0E26B42F00802E263E26B88
:100FC000002A33D0800604D5880602D5204600F0DA
:100FD0003BFB20684069E16BC0F38010090700D437
:100FE00028B3204600F022FB2068416949061AD543
:100FF000416921F040014161606BA0B11B4901656D
:10100000606BFFF784F9002810D0606B016DBDE8BC
:1010100070400847830610D58B060ED52046BDE8E4
:10102000704000F011BB2046FFF798FF70BD2046CE
:10103000FFF794FF0020E06370BD030606D50B06A2
:1010400004D52046BDE8704000F0A0BC4006F3D5B2
:101050004806F1D5D168204621F04001D160202119
:1010600084F8391000F04FF970BD00001D1600081B
:1010700070B5040004D094F83900002510B106E0E2
:10108000012070BD84F83850204600F023F8242059
:1010900084F839002068C16821F40051C1602046FD
:1010A00000F01EFB2068016921F490410161206875
:1010B000416921F02A0141612068C16841F4005171
:1010C000C160E563202084F8390084F83A000020EC
:1010D00070BD0000F0B587B0044614216846FFF7E4
:1010E000D7F82548234F26682349103802220123C8
:1010F00003240725BE4220D10E6846F400360E6058
:10110000096801F400310591016841F001010160B5
:101110000068694600F0010005900C208DE83D0054
:101120001648FFF719F9002211462620FFF760FA4A
:101130002620FFF74FFA07B0F0BD114FBE42FAD19B
:101140000E6846F480260E60096801F4802105913E
:10115000016841F0080101600068694600F008007C
:1011600005904FF440708DE83D000648FFF7F4F815
:10117000E1E7000000440040403802400000024027
:1011800000480040000C024090F83A30202B22D159
:10119000F9B1F2B190F83830012B1CD08162828510
:1011A000C2850021C163222280F83A2080F83810DD
:1011B0000168CA6842F48072CA6001684A6942F0F4
:1011C00001024A610068C16841F02001C16000204D
:1011D00070470120704702207047000070B5144826
:1011E000144C154D017820785A2915D048B1134A6E
:1011F000B5F900001154401C288080211048FFF7E9
:101200007DF9B5F9000052280FDCBDE870400122DD
:1012100007490C48FFF7B8BF0028E8D10A48007812
:101220000028EED101202070E1E70020207070BD81
:101230000100002004000020020000201C0000200B
:10124000000402407C000020000000202DE9F8434B
:10125000044690F839001F4616460D46202850D106
:10126000A5B19EB194F8380001284AD0012084F835
:1012700038004FF00008C4F83C80212084F8390081
:10128000FFF748F9A6848146E68426E00120BDE800
:10129000F883E08C401EE084A0684B46B0F5805F88
:1012A0004FF000024FF080012046009703D000F07D
:1012B0009EFBE8B90DE000F09AFBC8B928882168C8
:1012C000C0F308004860206908B16D1C05E0AD1C42
:1012D00003E0216815F8010B4860E08C0028D8D1A4
:1012E0004B46002240212046009700F080FB08B1C9
:1012F0000320CCE7202084F8390084F838800020CF
:10130000C5E70220C3E7704710B5044600F0B4FEFD
:101310004C22A11DBDE810400148FEF7A0BF00000F
:1013200004050020FEE700002DE9F04F87B01421EE
:101330006846FEF7ADFF48480024016841F004010B
:101340000160016801F004010591016841F080012C
:101350000160016801F080010591016841F001011F
:101360000160016801F001010591016841F020016F
:101370000160016801F020010591016841F002015E
:101380000160016801F002010591016841F0080166
:101390000160016801F008010591016841F0400118
:1013A00001600068DFF8B48000F040004FF40055A1
:1013B0000590002229464046FFF7A7F8DFF8A090E5
:1013C0004FF48146002231464846FFF79EF8DFF889
:1013D00094A0002240215046FFF797F8DFF888B02C
:1013E0002F11002239465846FFF78FF81F48009505
:1013F000CDE9010469465846FEF7AEFF0095012588
:10140000CDE90154694640460394FEF7A5FF0096D6
:10141000CDE90154694648460394FEF79DFF4020FC
:101420000090CDE90154694650460394FEF794FFBD
:101430008020CDE90004694650460294FEF78CFFF7
:101440000097CDE90154694658460394FEF784FF9E
:1014500007B0BDE8F08F00003038024000140240B1
:101460000004024000180240000802400000111071
:1014700010B50C480A49002401604FF4E131C0E97D
:1014800001140C21C460C0E904418461C461FFF708
:10149000EFFD08B1FEF73AFF0348048010BD0000DD
:1014A000004400407C000020020000200C4810B5E1
:1014B0000A4901604FF4E1314160002181600C2252
:1014C000C160C0E904128161C161FFF7D1FD00284C
:1014D00003D0BDE81040FEF719BF10BD0048004022
:1014E000BC0000200D4810B54FF0A041016006215E
:1014F000416002220021C0E90321C0E90621016206
:1015000041628162C1620163FFF7B8F8002803D02D
:10151000BDE81040FEF7FABE10BD0000FC00002040
:10152000FEE7704770477047FEF7FABF30B5A3B0CB
:1015300034216846FEF7ACFE14211CA8FEF7A8FE75
:101540003C210DA8FEF7A4FE1D480024016841F0CF
:1015500080510160006800F08050219019480168B6
:1015600041F4404101600068022500F440402190B0
:10157000012000904FF4A02001906805CDE90650AD
:1015800008204FF4C071CDE908010421CDE90A100B
:101590000C956846FFF73CFB0F20CDE91C05E802DF
:1015A000CDE91E4003211CA82094FFF749FA202012
:1015B00017940D900DA8FFF713F923B030BD00006C
:1015C00040380240007000401048016841F470014A
:1015D00001600F48016841F0010101600C4A0021DF
:1015E0000832116002680B4B1A400260031D0A4A60
:1015F0001A60026822F48022026005480C30016003
:1016000002495806803908607047000088ED00E004
:1016100000380240FFFFF6FE1030002410B5806B4A
:101620000021C185C184FFF799FC10BD0168CA681B
:1016300022F49072CA6001684A6922F001024A618C
:10164000202180F83A10704710B590F83A102229FE
:1016500001D0022010BD8168B1F5805F11D0016911
:10166000002901681FD0496801F07F03816A4A1C84
:1016700082620B70C18D491E0904090CC18518D006
:101680002BE00269816A002A0268526805D0D2B252
:101690000A80816A491C8162ECE7C2F308020A8071
:1016A000816A891CF7E74A68816A4B1C83620A7069
:1016B000E0E70168CA6822F02002CA600168CA68CF
:1016C00022F48072CA6001684A6922F001024A610C
:1016D000202180F83A10FFF781FD002010BD0000A6
:1016E0002DE9F041044600680169E26821F44051A7
:1016F000114301612169A068E269084361691143EE
:1017000022680843D16849F20C6399430143D160D0
:1017100020684169A26921F4407111434161E26985
:101720006425B2F5004F9748974922684FF0320878
:101730003FD08A4201D082427CD1FFF729FA00EBE8
:10174000C00101EB001061688900B0FBF1F6FFF702
:101750001FFA00EBC00101EB001061688900B0FBCB
:10176000F1F0B0FBF5F06FF01801484306EB800193
:1017700008EB0110B0FBF5F000F0F006FFF708FAF7
:1017800000EBC00101EB001061688900B0FBF1F0D3
:10179000B0FBF5F006EB0016FFF7FAF900EBC0011D
:1017A00001EB001061688900B0FBF1F7FFF7F0F979
:1017B000D2E08A4201D082423DD1FFF7E9F900EB45
:1017C000C00101EB001061684900B0FBF1F0B0FB13
:1017D000F5F00601FFF7DCF900EBC00101EB0010AA
:1017E00061684900B0FBF1F7FFF7D2F900EBC001E7
:1017F00001EB001061684900B0FBF1F0B0FBF5F0BF
:101800006FF01801484307EB800108EBC100B0FB03
:10181000F5F000F0F80006EB4006FFF7B9F900EB31
:10182000C00101EB001061684900B0FBF1F7FFF760
:10183000AFF93CE055E0FFF79BF900EBC00101EB8D
:10184000001061684900B0FBF1F0B0FBF5F0060153
:10185000FFF78EF900EBC00101EB00106168490051
:10186000B0FBF1F7FFF784F900EBC00101EB0010CA
:1018700061684900B0FBF1F0B0FBF5F06FF01801C2
:10188000484307EB800108EBC100B0FBF5F000F026
:10189000F80006EB4006FFF76BF900EBC00101EB27
:1018A000001061684900B0FBF1F7FFF761F900EB48
:1018B000C00101EB001061684900B0FBF1F0B0FB22
:1018C000F5F06FF01801484307EB800108EBC10009
:1018D000B0FBF5F000F00700216830448860BDE8F7
:1018E000F081FFF745F900EBC00101EB00106168E2
:1018F0008900B0FBF1F6FFF73BF900EBC00101EB0B
:10190000001061688900B0FBF1F0B0FBF5F06FF0FA
:101910001801484306EB800108EB0110B0FBF5F01D
:1019200000F0F006FFF724F900EBC00101EB001016
:1019300061688900B0FBF1F0B0FBF5F006EB001632
:10194000FFF716F900EBC00101EB00106168890098
:10195000B0FBF1F7FFF70CF900EBC00101EB001051
:1019600061688900B0FBF1F0B0FBF5F06FF0180191
:10197000484307EB800108EB0110B0FBF5F000F0E5
:101980000F00A9E7001401400010014090F8391041
:10199000212901D0022070478168B1F5805F016A7A
:1019A0000BD04A1C0262026809785160C18C491E42
:1019B0000904090CC1840ED017E009880268C1F33C
:1019C0000801516001690029016A02D0491C0162C5
:1019D000ECE7891CFBE70168CA6822F08002CA6054
:1019E0000068C16841F04001C160002070472DE9E6
:1019F000F041984617460E460446069D1DE0681CB9
:101A00001BD02DB1FEF786FDA0EB0800A84214D92B
:101A10002068C16821F4D071C1602068416921F05B
:101A200001014161202084F8390084F83A00002047
:101A300084F838000320BDE8F0812068006836EAA9
:101A4000000004D00020B842D9D00020F3E70120E4
:101A5000F9E700000148FFF783BA00007C0000208E
:101A600070B5044606990A9E049D0D98012916D06A
:101A7000E06840F04000E060204600F02BF8A16BE9
:101A80001EB321F48031A163012D07D1A16841F07B
:101A90000601A160A16841F02001A16070BDA16BA9
:101AA00021F48031A163E168094A1140E160E168F5
:101AB00021F44011E160012803D1E06840F4801076
:101AC000E060204600F006F8DEE741F48031DAE716
:101AD000BFFFBDFF01220C4902E0521C8A420BD815
:101AE0000369002BF9DA026942F001020261012266
:101AF00004E0521C8A4201D9032070470369DB07C6
:101B0000F7D1002070470000400D030010B5D0F859
:101B1000041841F00201C0F804180320FEF70AFC83
:101B2000002010BD2DE9F04F0025DDE90BCB0E465E
:101B30000446DDF84090099F2846294604EB8002C0
:101B4000C2F80411401C0F28F8D32046A06BB9F14D
:101B5000000F13D040F40012A26308468846C4F870
:101B6000000ED4F800182046C4F80018BCF1010F8C
:101B700010D0D0F8001841F0030110E020F400125A
:101B8000A263206840F040022260206840F080029A
:101B90002260E2E7D0F800180BB141F00101C0F873
:101BA0000018102100F096F800B10125204600F041
:101BB00081F800B101254046C4F81088C4F81488A3
:101BC000C4F81C8800214FF000634FF090484FF696
:101BD0007F3A14E004EB4112D2F800C9BCF1000FC7
:101BE00006DA11B1C2F8008904E0C4F8003901E056
:101BF000C2F80009C2F81009C2F808A9491C8E42AF
:101C0000E8D8002115E000BF04EB4112D2F800CB68
:101C1000BCF1000F06DA11B1C2F8008B04E0C4F881
:101C2000003B01E0C2F8000BC2F8100BC2F808AB91
:101C3000491C8E42E8D8D4F8101821F4807221464D
:101C4000C4F81028012F08D1134AC1F83028D1F860
:101C50003018124A1143C4F83018A0616FF0804068
:101C600060611FB9A06940F01000A061A0690C4933
:101C70000843A061BBF1000F03D0A06940F0080049
:101C8000A061B9F1010F03D1A06906490843A06121
:101C90002846BDE8F08F000000018000030001002D
:101CA00000383C8004000040816821F0010181601F
:101CB00000207047002110220261054A491C914210
:101CC00001D9032070470369DB06F7D40020704771
:101CD000400D03000022202343EA811101610549E0
:101CE000521C8A4201D90320704703699B06F7D42E
:101CF00000207047400D030010B5C26822F0C042BA
:101D0000C260012902D029B1012010BDC16841F093
:101D1000005102E0C16841F08041C1603220FEF70D
:101D200009FB002010BDFEE70FB4054B10B503A959
:101D3000044A029800F028F810BC5DF814FB00007B
:101D4000CD200008180000200907090E002804DB38
:101D500000F1E02080F80014704700F00F0000F15F
:101D6000E02080F8141D704702E008C8121F08C167
:101D7000002AFAD170477047002001E001C1121F0C
:101D8000002AFBD1704700002DE9FF4F8DB09B4624
:101D90000F460446002606E025280BD05A460F9928
:101DA0009047641C761C20780028F5D111B030468D
:101DB000BDE8F08F0025A8460122984900E00543C0
:101DC00014F8013F203B02FA03F00842F7D12078D3
:101DD0002E2817D114F8010F45F004052A280ED03B
:101DE0006FF02F022078A0F1300109290AD808EB02
:101DF000880102EB410100EB0108641CF2E757F88F
:101E0000048B641C20786C280DD004DC4C2812D084
:101E10006A2811D104E074280DD07A280CD10AE088
:101E200045F4001507E0617845F48015814202D140
:101E3000641C05F58015641C2278692A45D008DCED
:101E4000002AB3D0582A69D0632A10D0642A08D156
:101E50003BE0702A67D0732A13D0752A5CD0782AA9
:101E60005CD010465A460F999047761CD3E017F87D
:101E7000040B8DF8000000208DF80100E9460120D8
:101E800003E057F8049B4FF0FF3069074FF000055F
:101E900001D40AE06D1C45450DDA8542FADB19F8DC
:101EA00005100029F6D106E06D1C8542FCDB19F80F
:101EB00005100029F8D12E4404E019F8010B5A4608
:101EC0000F9990476D1EF8D2A5E00A200021CDE9B8
:101ED0000801C5F3025002280DD001CFC117031E1F
:101EE00071F100030DDA4FF0000CD0EB0C006CEB3D
:101EF00001012D2308E0FF1D27F00707F7E8020185
:101F0000EDE72B0504D52B238DF8283001233BE08A
:101F1000EB0739D02023F7E70A2000E0102000214A
:101F2000CDE9080107E01020002145F00405CDE9C6
:101F300008014FF00808C5F3025002280FD001CF66
:101F400000214FF0000A2B071FD5702A0DD0DDE9C4
:101F500008C38CF0100C5CEA030C0CD015E0FF1DDC
:101F600027F00707F7E80201EBE740228DF8282069
:101F70004FF0010A0BE050EA010306D030238DF840
:101F800028308DF8292002239A46582A04D024A20A
:101F90000DF120090B9209E026A2F9E7DDE90823FB
:101FA000FEF72CF90B9B9B5C09F8013D50EA0102FE
:101FB000F4D1ADEB090020300890680701D44FF050
:101FC00001080899884502DDA8EB010000E0002027
:101FD0008046002506E00AA85A46405D0F999047C2
:101FE0006D1C761C5545F6DB04E030205A460F99EF
:101FF0009047761CB8F10001A8F10108F5DC05E076
:1020000019F8010B5A460F999047761C0899481EFB
:1020100008900029F4DC641CC5E6000009280100D2
:10202000303132333435363738396162636465664E
:102030000000000030313233343536373839414210
:102040004344454600000000F0B50388002541F2F6
:1020500021070CE04C5D002683EA04235C001B048E
:1020600000D57C40761C2346082EF7D36D1C954284
:10207000F0D30380F0BD000038B504460020ADF871
:102080000000A078E178042200EB012085B221460F
:102090006846FFF7D9FF2A46A11D6846FFF7D4FF1F
:1020A00023796279BDF8001001A0FFF73DFE38BD2D
:1020B00063616C756C6174655F6372633D25780D57
:1020C0000A6372633D257825780D0A0013B5322323
:1020D000012269460248FFF7B9F800981CBD0000CC
:1020E000BC000020FEF724FAFFF720FAFFF71CF9E6
:1020F000FFF7BEF9FFF7DAF9FFF7F4F901220F490C
:102100000F48FFF741F80D4C00250126B4F10104FA
:10211000B4F902005228FBDB26700A48FFF7F4F8F6
:10212000B4F902100748FEF7B3F865802570012264
:1021300002490348FFF728F8EAE700000100002001
:102140007C0000201C0000200000000000000000B7
:10215000010203040607080900000000010203044D
:1021600080210008000000201C000000681D0008FD
:102170009C2100081C00002034090000781D000884
:10218000000000000000000001000000100000003E
:0C219000000000000024F400000000002B
:04000005080001C529
:00000001FF
