:020000040800F2
:1000000050090020D9010008F3190008F917000869
:10001000F1190008AB070008F721000800000000F4
:10002000000000000000000000000000F7190008B8
:10003000AD07000800000000F5190008F9190008D4
:10004000F3010008F3010008F3010008F3010008C0
:10005000F3010008F3010008F3010008F3010008B0
:10006000F3010008F3010008F3010008F3010008A0
:10007000F3010008F3010008F3010008F301000890
:10008000F3010008F3010008F3010008F301000880
:10009000F3010008F3010008F3010008F301000870
:1000A000F3010008F3010008F3010008F301000860
:1000B000F3010008F3010008F3010008F301000850
:1000C000F3010008F3010008F3010008F301000840
:1000D000F3010008F3010008251F0008F3010008E0
:1000E000F3010008F3010008F3010008F301000820
:1000F000F3010008F3010008F3010008F301000810
:1001000000000000F3010008F3010008F3010008FB
:100110000000000000000000F3010008F3010008E7
:10012000F3010008F3010008F3010008F3010008DF
:10013000F3010008F3010008F3010008F3010008CF
:10014000F3010008F3010008F3010008F3010008BF
:10015000F3010008F3010008F3010008F3010008AF
:10016000F3010008F3010008000000000000000097
:10017000000000000000000000000000000000007F
:10018000F3010008F3010008000000000000000077
:10019000F3010008F3010008000000000000000067
:1001A000000000000000000000000000000000004F
:1001B000F30100080000000000000000F301000847
:1001C000F3010008DFF80CD000F06EFA0048004799
:1001D000912B000850090020064880470648004738
:1001E000FEE7FEE7FEE7FEE7FEE7FEE7FEE7FEE7E7
:1001F000FEE7FEE7991A0008C50100082DE9F05F47
:100200000546002092469B46884606468146402485
:100210001BE0284641464746224600F07CF85346FC
:100220005A46C01A914110D311461846224600F092
:1002300063F82D1A67EB01084F4622460120002182
:1002400000F05AF817EB00094E41201EA4F10104FA
:10025000DFDC484631462A464346BDE8F09F40EA87
:1002600001039B0703D009E008C9121F08C0042A34
:10027000FAD203E011F8013B00F8013B521EF9D21B
:100280007047D2B201E000F8012B491EFBD2704743
:100290000022F6E710B513460A4604461946FFF752
:1002A000F0FF204610BD00F0004230F000400AD0C0
:1002B000C10D01F56071C0F3160042EA0151C20898
:1002C00040071143704700200146704730B50B4688
:1002D000014600202022012409E021FA02F59D4276
:1002E00005D303FA02F5491B04FA02F52844151E4A
:1002F000A2F10102F1DC30BD202A04DB203A00FA31
:1003000002F1002070479140C2F1200320FA03F36C
:10031000194390407047202A04DB203A21FA02F06A
:100320000021704721FA02F3D040C2F1200291402F
:100330000843194670472DE9FE4F804681EA0300C5
:10034000C00F0C46009021F0004123F00045B8EBAF
:100350000200A94105D24046214690461C460B4664
:10036000024623F00040104347D0270DC7F30A0090
:10037000C3F30A510290401A019040286BDAC3F38C
:10038000130040F4801B0098924620B10023D2EB6A
:10039000030A63EB0B0B01985946C0F1400250462B
:1003A000FFF7AAFF06460D4650465946019A00F04F
:1003B0008DF910EB08006141002487EA115284EAAC
:1003C000E7731A4340D0009A62B3019A012A4FEAB8
:1003D000075215DC001B61EB02014FF0004202EAFC
:1003E0000752CDE90042001C41F5801132462B46F0
:1003F00000F08DF903B0BDE8F08F40462146F9E7E3
:10040000001B61EB0201001C41F5801300185B41E9
:100410002018A2F5001747EB030140EAD570B61982
:100420006D4111E06D084FEA360645EAC0754FEAA6
:100430000752001B61EB0201001C41F580114908C5
:100440004FEA30000019514132462B4603B0BDE857
:10045000F04F00F04DB90098012240000023D0EB8E
:10046000020263EBE073009821464FEAE074B8EBB8
:10047000000061EB0401E9E783F000435BE781F0F2
:10048000004158E72DE9FE4F81EA030404F00044DF
:1004900021F0004100944FF0000B23F0004350EA9C
:1004A00001045ED052EA03045BD0C3F30A54C1F3E3
:1004B0000A552C44A4F2F3340194A0FB0254C1F376
:1004C000130141F48011C3F3130343F4801301FBC0
:1004D000024400FB034E840A970A44EA815447EA27
:1004E0008357A4FB076802958D0A05FB07854FEA31
:1004F000932C04FB0C542705029D4FEA065847EA4B
:100500001637B5EB08056EEB070C870E920E47EA1F
:10051000811742EA8312A7FB0201B6EB0B0164EBE1
:1005200000042B0D43EA0C335E1844EB1C50DA46F2
:100530005146E7FB0201C5F313044FEA0B3343EACC
:1005400014534FEA0432019C43EA0603A4F10C045D
:100550000294009CCDE900B400F0D9F803B0BDE8E6
:10056000F08F00200146F9E72DE9F04D81EA030400
:1005700004F0004B21F0004514464FF0000A23F030
:10058000004150EA050220D054EA01021DD0C5F313
:100590000A570246C5F31303C1F31300C1F30A5609
:1005A00040F4801543F48013A7EB0608101BD646D1
:1005B00008F2FD3873EB050002D308F1010801E0F1
:1005C00092185B41B8F1000F03DA00200146BDE844
:1005D000F08D00204FF48011064684460EE0171B74
:1005E00073EB050705D3121B63EB050306434CEAC7
:1005F000010C49084FEA300092185B4150EA0107AC
:10060000EDD152EA030012D082EA040083EA050128
:10061000084305D0101BAB4106D20122002306E09F
:1006200000224FF0004302E06FF0010253101AEB7A
:1006300006004CEB085110EB0A0041EB0B01BDE842
:10064000F04D00F055B8C1F30A52C1F3130140F266
:10065000FF3341F480119A4202DA002001467047CC
:1006600040F233439A42A2F2334202DC5242FFF795
:1006700052BEFFF741BE000030B5041E71F1000408
:1006800004DB4FF00044404264EB0101141E73F19F
:10069000000405DB1C464FF00043524263EB0403A9
:1006A000994208BF904230BD064C074D06E0E06815
:1006B00040F0010394E8070098471034AC42F6D3A9
:1006C000FFF784FD1C2C00083C2C0008202A06DBC8
:1006D000CB17203A41FA02F043EAE07306E041FA10
:1006E00002F3D040C2F120029140084319467047FE
:1006F00010B5141E73F1000408DA401C41F100012A
:1007000092185B411A4301D120F0010010BD2DE980
:10071000F04D92469B4611B1B1FA81F202E0B0FA77
:1007200080F220329046FFF7E7FD04460F4640EA8C
:100730000A0041EA0B0153465A46084313D01146BA
:1007400053EA010019D0C8F140025046FFF7E3FD1B
:1007500005460E46504659464246FFF7CDFD084332
:1007600005D0012004E020463946BDE8F08D002088
:10077000054346EAE0762C4337430A986305E40ACA
:10078000A0EB08000022FD0A44EA47540A3002D5D3
:1007900000200146E9E7010510196941DDE9084536
:1007A00000196941BDE8F04DA2E7FEE770477047C8
:1007B00090F83510022903D080214165012070474F
:1007C000052180F835100068016821F00101016001
:1007D0000020704770B5044600F0E6F80546601C3E
:1007E00002D004480078044400F0DEF8401BA04228
:1007F000FAD370BD080000202DE9F84FDFF874B17E
:1008000000224FF001084FF0030A4FF00F090BF1DF
:10081000040E00BF0B6808FA02F42340A3426ED115
:100820004D68022D01D0122D0ED1D50800EB850C9C
:10083000DCF820505607F70E09FA07F6B5430E69A3
:10084000BE402E43CCF82060066855000F790AFAA6
:1008500005FC07F0030726EA0C06AF4037430760A4
:100860004E68012E05D0022E03D0112E01D0122E7B
:100870000ED18668CF6826EA0C06AF403743876002
:100880004668A6430C79C4F3001494403443446092
:10089000C4688E6824EA0C04AE402643C6604C68E7
:1008A000E40060D5344C256845F480452560246813
:1008B00022F0030504F480440094304C2E19D6F83D
:1008C000084895072F0F09FA07F5AC432C4DA842AD
:1008D00001D100251FE02B4DA84201D101251AE0CE
:1008E000294DA84201D1022515E0284DA84201D189
:1008F000032510E0264DA84202D104250BE032E08A
:10090000244DA84201D1052505E0234DA84201D17F
:10091000062500E00725BD402543C6F80858DBF84A
:1009200000405D464E689C43F60300D51C432C6096
:10093000DEF8004075464E689C43B60300D51C4364
:100940002C600C4D08352C684E689C43F60200D58F
:100950001C432C60074D0C352C684E689C43B60236
:1009600000D51C432C60521C102AFFF453AFBDE885
:10097000F88F0000003C0140443802400030014044
:10098000000002400004024000080240000C024047
:100990000010024000140240001802400AB18161B8
:1009A00070470904FBE700000148806870470000B9
:1009B0000800002002488168027811448160704775
:1009C000080000200B4810B5016841F40071016077
:1009D000016841F480610160016841F48071016047
:1009E000032000F06FF8002000F006F800F024F873
:1009F000002010BD003C024070B50D4D04464FF480
:100A00007A712878B1FBF0F00A490968B1FBF0F07F
:100A100000F0DAFC48B9102C07D200222146501E03
:100A200000F030F800206C6070BD012070BD000047
:100A300008000020140000200A4808B5016841F4AD
:100A400080410160006800F4804000900548001F6C
:100A5000016841F080510160006800F08050009012
:100A600008BD000044380240002809DB00F01F02E6
:100A7000012191404009800000F1E020C0F8001100
:100A800070470000F0B40E4B1B680C46C3F3022302
:100A9000C3F10705042D00D90425191D072901D22A
:100AA000002300E0DB1E012606FA05F1491E214065
:100AB00099409E40761E16403143F0BC01F0ACBB1D
:100AC0000CED00E0064900F0070208684FF6FF034E
:100AD000184040EA0220034A1043086070470000B3
:100AE0000CED00E00000FA0501220168C0F8FC23CB
:100AF000002280F8F423886940F000608861486D26
:100B0000024A1043486500207047000003000010AF
:100B10002DE9F0418AB0040005D094F8BD032668A1
:100B2000002520B108E001200AB0BDE8F08184F87A
:100B3000BC53204600F064F8032084F8BD03F06B3A
:100B4000C00500D42561206801F016FB04F11001F6
:100B5000282288466846FFF782FB94E80F0001F0E0
:100B6000E7F90226C8BB0021206801F02DFB002018
:100B700001270EE0C0EBC00104EB810181F83D705C
:100B800001F83C0FC880CD708D60CD60401CC0B2B4
:100B90004D6161688142EDD8002011E0C0EBC001D9
:100BA00004EB810181F8FD5181F8FC0181F8FF51CE
:100BB000C1F80452C1F80852401CC0B2C1F810522A
:100BC00061688142EAD8282241466846FFF747FB20
:100BD00094E80F0001F00EFA10B184F8BD63A2E7AB
:100BE00084F8385084F8BD73606A012802D1204629
:100BF000FFF77AFF206801F0F1F9002094E7000088
:100C000010B586B0044614216846FFF741FB206802
:100C1000B0F1A04F27D115480021026842F001022F
:100C20000260006800F0010005904FF4E850009069
:100C30000220CDE90101032003900A2004906946B7
:100C40000B48FFF7D9FD0948001D016841F08001FC
:100C5000016006481430016841F480410160006879
:100C600000F48040059006B010BD0000303802400E
:100C7000000002402DE9F84F0446007800268D4D13
:100C8000C00708D02868616920F0C0600843286068
:100C9000606900B901262078800708D52868A16915
:100CA00020F0C05008432860A06900B901262078D0
:100CB0004FF0000A00074FF0010B55D57D484C3826
:100CC000016841F0805101600068DFF8EC8100F0BC
:100CD00080500090D8F8001041F48071C8F80010DE
:100CE000FFF762FE074604E0FFF75EFEC01B022826
:100CF0006FD8D8F80000C005F6D56E4F1C3F386895
:100D000010F440701FD0A18B01F4407181421AD0C1
:100D1000386820F440716948C0F800B0C0F800A0FD
:100D200039603868C0070ED0FFF73EFE804641F2BA
:100D3000883905E0FFF738FEA0EB0801494548D89F
:100D400038688007F6D5E1695A48C1F30122843832
:100D5000032A36D0016821F4F81101603868A18BAC
:100D6000C1F30B01084338602078DFF85491400745
:100D700003D594F83810C9F8E0112078C10651481D
:100D800005D50168626A21F44001114301602178B0
:100D90004FF00067890609D50168A26A21F0006159
:100DA00011430160A16AB94200D1012621784906A8
:100DB00005D50168226A21F080511143016066B9AE
:100DC00008E00268404B22F4F81219400A4302601E
:100DD000C4E754E02068802857D15046DFF8ECA0E3
:100DE000CAF86800FFF7E0FD324E80468C3E05E011
:100DF000FFF7DAFDA0EB0800022840D830680001B8
:100E0000F6D4616BC9F8D81020683149C20701D007
:100E100062697AB1820701D5A2695AB1820602D508
:100E2000A26ABA4206D040060FD5206A68B9A06A05
:100E3000B8420AD1D4E9010240EA8210227B237C25
:100E4000120642EA037210430860207800060AD5B1
:100E5000D4E9010240EA8210227B237C120642EA96
:100E6000037210430860CAF868B0FFF79DFD07469B
:100E700008E000BFFFF798FDC01B022802D903203D
:100E8000BDE8F88F30680001F4D52088C00505D58D
:100E90002868E16A20F00040084328602088800527
:100EA00005D52868216B20F4004008432860002005
:100EB000E6E700008C38024000700040400E4742D8
:100EC0000010474294380240FFFCFF0F00004742E9
:100ED000843802402DE9F0470E46050065D0DFF862
:100EE0001481D8F80000F7B200F00F00B04207D22A
:100EF00088F80070D8F8000000F00F00B04254D11C
:100F000028683D4C810712D5400703D5206840F47E
:100F1000E05020602878000703D5206840F4604046
:100F200020602068A96820F0F0000843206028783D
:100F3000C0072DD0304968680839012812D002282E
:100F400013D0032811D00968890700292DDA2168F8
:100F500021F0030101432160FFF726FD814641F2A4
:100F6000883A0EE009688903EFE709688901ECE730
:100F7000FFF71AFDA0EB0901514502D90320BDE896
:100F8000F0872068696800F00C00B0EB810FEFD1AA
:100F9000D8F80010404601F00F01B14207D90770A0
:100FA000006800F00F00B04201D00120E7E7287888
:100FB000400705D52068E96820F4E0500843206028
:100FC0002878000706D52068296920F4604040EAA7
:100FD000C100206000F036F82168084AC1F303110F
:100FE000515CC840064908600020FFF705FD00205D
:100FF000C5E70000003C024008380240042C00080D
:10100000140000200448054900680968044AC1F337
:101010008221515CC840704714000020083802400B
:10102000142C00080448054900680968044AC1F303
:101030004231515CC840704714000020083802401B
:10104000142C0008154810B5006810F00C02144864
:1010500013D04110042A0FD0082A0ED10F4C241FA0
:101060002268236802F03F025B0207D52068C0F3C4
:101070008810A0FB010106E0084610BD2168C1F3FD
:101080008811A1FB00010023FFF7B8F82168C1F324
:101090000141491C4900B0FBF1F010BD0838024085
:1010A0000024F4002DE9F84F05460078DFF800B37E
:1010B000C04CC0074AD0DBF800105846C1F381018C
:1010C000012908D00068C0F3810002280AD1201D40
:1010D0000068400206D52068800337D5686800287C
:1010E00072D033E06868B0F5803F10D0B0F5A02F23
:1010F000206810D020F480302060206820F4802008
:1011000020606868A8B1FFF74FFC06460DE0206834
:1011100040F48030F4E740F480202060F7E700BF1F
:10112000FFF742FC801B64286FD820688003F7D546
:101130000CE0FFF739FC064605E000BFFFF734FC82
:10114000801B6428F0D820688003F7D42878DFF863
:10115000688280074FF0000940D5DBF80010584640
:1011600011F00C0F09D00068C0F3810002280BD1E8
:101170008F48001F0068400206D42068800715D5FC
:10118000E868012820D111E0E868B8B10120C8F86A
:101190000000FFF709FC064605E000BFFFF704FC6E
:1011A000801B0228C0D820688007F7D520682969ED
:1011B00020F0F80040EAC10020600FE0C8F800907D
:1011C000FFF7F2FB064606E0EFE000BFFFF7ECFB9F
:1011D000801B022819D820688007F7D428780007D8
:1011E00022D5734E754869696C3679B10121016069
:1011F000FFF7DAFB074604E0FFF7D6FBC01B022827
:1012000003D830688007F7D50EE089E0C0F8009079
:10121000FFF7CAFB074604E0FFF7C6FBC01B022826
:101220007ED830688007F7D42878400768D5DFF883
:1012300080A100270AF1380ADAF80000C0000BD4B8
:10124000DAF8001041F08051CAF80010DAF8000016
:10125000012700F080500090594E3068C00510D42E
:10126000306840F480703060FFF79EFB009005E02E
:10127000FFF79AFB0099401A022851D83068C00540
:10128000F6D54B4EA868683601280FD0052830687F
:1012900010D020F001003060306820F00400306091
:1012A000A868B8B1FFF780FB00900FE0306840F00D
:1012B0000100F4E740F004003060F7E7FFF774FB4B
:1012C0000099411A41F28830814266D8306880071F
:1012D000F4D50EE0FFF768FB009007E0FFF764FB32
:1012E0000099411A41F28830814256D8306880070F
:1012F000F4D42FB1DAF8001021F08051CAF80010B0
:10130000A869D0B3DBF80010C1F3810102294CD0E9
:101310000228484607D0C8F86000FFF745FB00E008
:101320003BE005463CE04746C8F86000FFF73CFB61
:10133000064604E0FFF738FB801B02282DD8206802
:101340008001F7D4F5E907010843E9681D4A490817
:1013500002EB0141AA6841EA82110843297C40EA74
:101360000160297D40EA01711148001F01600120E0
:101370003866FFF719FB054605E014E0FFF714FB9C
:10138000401B022809D820688001F7D50BE000BF78
:10139000FFF70AFB401B022802D90320BDE8F88FA3
:1013A00020688001F4D40020F8E70120F6E700006F
:1013B000083802400038024000004742800E474291
:1013C000007000400000FFFF10B5401EB0F1807FAC
:1013D00001D3012010BD4FF0E02460610F216017A0
:1013E00000F01AFF0020A06107202061002010BD3E
:1013F0007047000070B5026804461068D1685369F0
:1014000010F00F0F50D003F0010501F49076354332
:101410005DD0C20705D0CA0503D5E26B42F00102D8
:10142000E263420705D5DA0703D0E26B42F002021D
:10143000E263820705D5DA0703D0E26B42F00402CB
:10144000E263020705D5DA0703D0E26B42F0080237
:10145000E263E26B002A33D0800604D5880602D509
:10146000204600F059FB20684069E16BC0F3801012
:10147000090700D428B3204600F040FB20684169EA
:1014800049061AD5416921F040014161606BA0B164
:101490001B490165606BFFF78BF9002810D0606B6A
:1014A000016DBDE870400847830610D58B060ED548
:1014B0002046BDE8704000F02FBB2046FFF798FFA4
:1014C00070BD2046FFF794FF0020E06370BD030667
:1014D00006D50B0604D52046BDE8704000F0BEBC22
:1014E0004006F3D54806F1D5D168204621F04001E9
:1014F000D160202184F8391000F018F970BD000087
:10150000ED1A000870B5040004D094F839000025E5
:1015100010B106E0012070BD84F83850204600F07C
:1015200023F8242084F839002068C16821F4005190
:10153000C160204600F03CFB2068016921F4904125
:1015400001612068416921F02A0141612068C16878
:1015500041F40051C160E563202084F8390084F82B
:101560003A00002070BD0000F0B587B00446142199
:101570006846FEF78DFE2548234F2668234910381C
:101580000222012303240725BE4220D10E6846F41F
:1015900000360E60096801F400310591016841F0E0
:1015A000010101600068694600F0010005900C200F
:1015B0008DE83D001648FFF71FF90022114626204E
:1015C000FFF760FA2620FFF74FFA07B0F0BD114F82
:1015D000BE42FAD10E6846F480260E60096801F416
:1015E00080210591016841F00801016000686946A9
:1015F00000F0080005904FF440708DE83D0006486B
:10160000FFF7FAF8E1E700000044004040380240EC
:101610000000024000480040000C024090F83A30C0
:10162000202B22D1F9B1F2B190F83830012B1CD027
:1016300081628285C2850021C163222280F83A201E
:1016400080F838100168CA6842F48072CA60016884
:101650004A6942F001024A610068C16841F0200114
:10166000C16000207047012070470220704700F0E1
:101670006FB82DE9F843044690F839001F46164626
:101680000D46202850D1A5B19EB194F8380001280C
:101690004AD0012084F838004FF00008C4F83C809C
:1016A000212084F83900FFF77FF9A6848146E6847B
:1016B00026E00120BDE8F883E08C401EE084A068AD
:1016C0004B46B0F5805F4FF000024FF0800120469E
:1016D000009703D000F0F3FBE8B90DE000F0EFFB5A
:1016E000C8B928882168C0F308004860206908B19B
:1016F0006D1C05E0AD1C03E0216815F8010B486086
:10170000E08C0028D8D14B4600224021204600978B
:1017100000F0D5FB08B10320CCE7202084F8390085
:1017200084F838800020C5E70220C3E77047000036
:1017300010B5044601F000FA002806D04C22A11D85
:10174000BDE810400148FEF78ABD10BD0405002029
:1017500030B413490268486803689A421ED1CA1C13
:1017600013780A465A2B92780ED022B10D4C4A7843
:10177000A354521C4A704A78522A0DD808490122B3
:1017800030BCC91CFFF74ABF002AEFD10A78002AF3
:10179000F1D101228A70E9E70020887030BC7047DF
:1017A00000000020A4040020034900224A70012206
:1017B0004860C91CFFF732BF0000002010B50C4C78
:1017C0006078522812D3012020700A48FFF7B0FF3A
:1017D00061780848FEF75CFD0020607020700122EF
:1017E000E11C6068BDE81040FFF718BF10BD0000A5
:1017F00000000020A4040020FEE700002DE9F04FC7
:1018000087B014216846FEF743FD4848002401686C
:1018100041F004010160016801F0040105910168D3
:1018200041F080010160016801F0800105910168CB
:1018300041F001010160016801F0010105910168B9
:1018400041F020010160016801F02001059101686B
:1018500041F002010160016801F002010591016897
:1018600041F008010160016801F00801059101687B
:1018700041F0400101600068DFF8B48000F04000F2
:101880004FF400550590002229464046FFF786F8A0
:10189000DFF8A0904FF48146002231464846FFF71A
:1018A0007DF8DFF894A0002240215046FFF776F83B
:1018B000DFF888B02F11002239465846FFF76EF83E
:1018C0001F480095CDE9010469465846FEF794FF8C
:1018D00000950125CDE90154694640460394FEF781
:1018E0008BFF0096CDE90154694648460394FEF704
:1018F00083FF40200090CDE901546946504603948F
:10190000FEF77AFF8020CDE9000469465046029434
:10191000FEF772FF0097CDE90154694658460394DB
:10192000FEF76AFF07B0BDE8F08F000030380240D4
:101930000014024000040240001802400008024067
:10194000000011100C4810B50A4901604FF4E13154
:101950004160002181600C22C160C0E904128161F4
:10196000C161FFF7CFFD002803D0BDE81040FEF7AE
:101970001EBF10BD004400401C0000200C4810B5E4
:101980000A4901604FF4E1314160002181600C227D
:10199000C160C0E904128161C161FFF7B3FD002895
:1019A00003D0BDE81040FEF702BF10BD0048004064
:1019B0005C0000200D4810B54FF0A04101600621E9
:1019C000416002220021C0E90321C0E90621016231
:1019D00041628162C1620163FFF79AF8002803D077
:1019E000BDE81040FEF7E3BE10BD00009C000020E3
:1019F000FEE7704770477047FEF7DCBF30B5A3B015
:101A000034216846FEF744FC14211CA8FEF740FC74
:101A10003C210DA8FEF73CFC1D480024016841F064
:101A200080510160006800F08050219019480168E1
:101A300041F4404101600068022500F440402190DB
:101A4000012000904FF4A02001906805CDE90650D8
:101A500008204FF4C071CDE908010421CDE90A1036
:101A60000C956846FFF71EFB0F20CDE91C05E80228
:101A7000CDE91E4003211CA82094FFF72BFA20205B
:101A800017940D900DA8FFF7F5F823B030BD0000B6
:101A900040380240007000401048016841F4700175
:101AA00001600F48016841F0010101600C4A00210A
:101AB0000832116002680B4B1A400260031D0A4A8B
:101AC0001A60026822F48022026005480C3001602E
:101AD00002495806803908607047000088ED00E030
:101AE00000380240FFFFF6FE1030002410B5806B76
:101AF0000021C185C184FFF77BFC10BD0168CA6865
:101B000022F49072CA6001684A6922F001024A61B7
:101B1000202180F83A10704710B590F83A10222929
:101B200001D0022010BD8168B1F5805F11D001693C
:101B3000002901681FD0496801F07F03816A4A1CAF
:101B400082620B70C18D491E0904090CC18518D031
:101B50002BE00269816A002A0268526805D0D2B27D
:101B60000A80816A491C8162ECE7C2F308020A809C
:101B7000816A891CF7E74A68816A4B1C83620A7094
:101B8000E0E70168CA6822F02002CA600168CA68FA
:101B900022F48072CA6001684A6922F001024A6137
:101BA000202180F83A10FFF762FD002010BD0000F0
:101BB0002DE9F041044600680169E26821F44051D2
:101BC000114301612169A068E26908436169114319
:101BD00022680843D16849F20C6399430143D160FC
:101BE00020684169A26921F4407111434161E269B1
:101BF0006425B2F5004F9748974922684FF03208A4
:101C00003FD08A4201D082427CD1FFF70BFA00EB31
:101C1000C00101EB001061688900B0FBF1F6FFF72D
:101C200001FA00EBC00101EB001061688900B0FB14
:101C3000F1F0B0FBF5F06FF01801484306EB8001BE
:101C400008EB0110B0FBF5F000F0F006FFF7EAF941
:101C500000EBC00101EB001061688900B0FBF1F0FE
:101C6000B0FBF5F006EB0016FFF7DCF900EBC00166
:101C700001EB001061688900B0FBF1F7FFF7D2F9C2
:101C8000D2E08A4201D082423DD1FFF7CBF900EB8E
:101C9000C00101EB001061684900B0FBF1F0B0FB3E
:101CA000F5F00601FFF7BEF900EBC00101EB0010F3
:101CB00061684900B0FBF1F7FFF7B4F900EBC00130
:101CC00001EB001061684900B0FBF1F0B0FBF5F0EA
:101CD0006FF01801484307EB800108EBC100B0FB2F
:101CE000F5F000F0F80006EB4006FFF79BF900EB7B
:101CF000C00101EB001061684900B0FBF1F7FFF78C
:101D000091F93CE055E0FFF77DF900EBC00101EBF4
:101D1000001061684900B0FBF1F0B0FBF5F006017E
:101D2000FFF770F900EBC00101EB0010616849009A
:101D3000B0FBF1F7FFF766F900EBC00101EB001013
:101D400061684900B0FBF1F0B0FBF5F06FF01801ED
:101D5000484307EB800108EBC100B0FBF5F000F051
:101D6000F80006EB4006FFF74DF900EBC00101EB70
:101D7000001061684900B0FBF1F7FFF743F900EB91
:101D8000C00101EB001061684900B0FBF1F0B0FB4D
:101D9000F5F06FF01801484307EB800108EBC10034
:101DA000B0FBF5F000F00700216830448860BDE822
:101DB000F081FFF727F900EBC00101EB001061682B
:101DC0008900B0FBF1F6FFF71DF900EBC00101EB54
:101DD000001061688900B0FBF1F0B0FBF5F06FF026
:101DE0001801484306EB800108EB0110B0FBF5F049
:101DF00000F0F006FFF706F900EBC00101EB001060
:101E000061688900B0FBF1F0B0FBF5F006EB00165D
:101E1000FFF7F8F800EBC00101EB001061688900E2
:101E2000B0FBF1F7FFF7EEF800EBC00101EB00109B
:101E300061688900B0FBF1F0B0FBF5F06FF01801BC
:101E4000484307EB800108EB0110B0FBF5F000F010
:101E50000F00A9E7001401400010014090F839106C
:101E6000212901D0022070478168B1F5805F016AA5
:101E70000BD04A1C0262026809785160C18C491E6D
:101E80000904090CC1840ED017E009880268C1F367
:101E90000801516001690029016A02D0491C0162F0
:101EA000ECE7891CFBE70168CA6822F08002CA607F
:101EB0000068C16841F04001C160002070472DE911
:101EC000F041984617460E460446069D1DE0681CE4
:101ED0001BD02DB1FEF768FDA0EB0800A84214D975
:101EE0002068C16821F4D071C1602068416921F087
:101EF00001014161202084F8390084F83A00002073
:101F000084F838000320BDE8F0812068006836EAD4
:101F1000000004D00020B842D9D00020F3E701200F
:101F2000F9E700000148FFF765BA00001C00002037
:101F300070B5044606990A9E049D0D98012916D095
:101F4000E06840F04000E060204600F02BF8A16B14
:101F50001EB321F48031A163012D07D1A16841F0A6
:101F60000601A160A16841F02001A16070BDA16BD4
:101F700021F48031A163E168094A1140E160E16820
:101F800021F44011E160012803D1E06840F48010A1
:101F9000E060204600F006F8DEE741F48031DAE741
:101FA000BFFFBDFF01220C4902E0521C8A420BD840
:101FB0000369002BF9DA026942F001020261012291
:101FC00004E0521C8A4201D9032070470369DB07F1
:101FD000F7D1002070470000400D030010B5D0F885
:101FE000041841F00201C0F804180320FEF7F2FBC8
:101FF000002010BD2DE9F04F0025DDE90BCB0E468A
:102000000446DDF84090099F2846294604EB8002EB
:10201000C2F80411401C0F28F8D32046A06BB9F178
:10202000000F13D040F40012A26308468846C4F89B
:10203000000ED4F800182046C4F80018BCF1010FB7
:1020400010D0D0F8001841F0030110E020F4001285
:10205000A263206840F040022260206840F08002C5
:102060002260E2E7D0F800180BB141F00101C0F89E
:102070000018102100F096F800B10125204600F06C
:1020800081F800B101254046C4F81088C4F81488CE
:10209000C4F81C8800214FF000634FF090484FF6C1
:1020A0007F3A14E004EB4112D2F800C9BCF1000FF2
:1020B00006DA11B1C2F8008904E0C4F8003901E081
:1020C000C2F80009C2F81009C2F808A9491C8E42DA
:1020D000E8D8002115E000BF04EB4112D2F800CB94
:1020E000BCF1000F06DA11B1C2F8008B04E0C4F8AD
:1020F000003B01E0C2F8000BC2F8100BC2F808ABBD
:10210000491C8E42E8D8D4F8101821F48072214678
:10211000C4F81028012F08D1134AC1F83028D1F88B
:102120003018124A1143C4F83018A0616FF0804093
:1021300060611FB9A06940F01000A061A0690C495E
:102140000843A061BBF1000F03D0A06940F0080074
:10215000A061B9F1010F03D1A06906490843A0614C
:102160002846BDE8F08F0000000180000300010058
:1021700000383C8004000040816821F0010181604A
:1021800000207047002110220261054A491C91423B
:1021900001D9032070470369DB06F7D4002070479C
:1021A000400D03000022202343EA8111016105490B
:1021B000521C8A4201D90320704703699B06F7D459
:1021C00000207047400D030010B5C26822F0C042E5
:1021D000C260012902D029B1012010BDC16841F0BF
:1021E000005102E0C16841F08041C1603220FEF739
:1021F000F1FA002010BDFEE70FB4054B10B503A99E
:10220000044A029800F0EAF810BC5DF814FB0000E4
:10221000792B0008180000200907090E002804DBAC
:1022200000F1E02080F80014704700F00F0000F18A
:10223000E02080F8141D704702E008C8121F08C192
:10224000002AFAD170477047002001E001C1121F37
:10225000002AFBD1704700002DE9FF5F82B000210A
:10226000DDE90430020DDDF840B0034318D044F638
:102270001050A2F2FF3242431514119801281FD0CA
:10228000A5EB0B00401C5FEA000A4FF000064E4F22
:10229000DFF83891B046504615D5CAF1000413E076
:1022A000119801244AA3012801D16FEA0B01029879
:1022B000119AC0E90031C0E9024206B0BDE8F09FC2
:1022C000CBF10000DFE704460021404A491842EB09
:1022D0000450CDE9001012E0E00707D032463B463B
:1022E00040464946FEF7CEF88046894632463B4690
:1022F00010461946FEF7C6F806460F466410002C35
:10230000EAD1DDE90401DDE90023BAF1000F06DAC4
:10231000FEF7B8F842464B46FEF7B4F805E0FEF784
:1023200023F942464B46FEF71FF904460E460022AB
:10233000284BFEF7A1F903D84FF0FF30014607E024
:102340000022254B20463146FDF7F5FFFEF77BF9CD
:10235000102409E0002C0ADB0A220023FDF74EFFBF
:10236000039B30321A55641E50EA0102F2D1641CFC
:10237000039AC4F111031444119A012A03D00122D3
:1023800008430DD10AE0084304D000204FF0110BA0
:10239000119072E7A3EB0B056D1E0DE05B4504DDAC
:1023A0004FF0000205F1010504E003DA4FF00002EE
:1023B000A5F10105002AECD002981199C0E902317B
:1023C000C0E9004579E70000000014400000F03F3C
:1023D000300000000000F0430000E03F2DE9FF4F17
:1023E00095B09B468946064600250FE2252877D101
:1023F00000242746F84A0121059400E0044316F81A
:10240000013F203B01FA03F01042F7D130782A282F
:1024100011D06FF02F033078A0F13002092A16D8BE
:10242000059A44F0020402EB820203EB42021044DC
:10243000761C0590EFE759F8042B0592002A03DA81
:10244000504244F40054059044F00204761C307865
:102450002E2816D116F8010F44F004042A280DD0B6
:102460006FF02F023078A0F13003092B09D807EB69
:10247000870302EB4303C718761CF3E759F8047B84
:10248000761C30786C280FD006DC4C2817D06828D2
:102490000DD06A2814D104E0742810D07A280FD106
:1024A0000DE044F400140AE044F4801401E044F424
:1024B00040147278824202D104F58014761C761C96
:1024C000307866280BD013DC582877D009DC002838
:1024D00075D04528F6D04628F4D047281AD19DE17A
:1024E00018E0632835D0642879D0652812D195E1A9
:1024F000702873D008DC6728F1D069286FD06E2867
:102500000DD06F2806D1B5E073282CD0752875D072
:10251000782874D05A46179990476D1C75E1C4F31A
:102520000250022809D003280DD0D9F80010042841
:102530000DD00D6009F1040967E1D9F80010EA1720
:10254000C1E90052F6E7D9F800100D80F2E70D70EE
:10255000F0E719F8041B8DF8001000208DF8010039
:10256000EA46012003E059F804AB4FF0FF30610761
:102570004FF0000102D40DE008F101018846B94294
:102580000FDA8045F8DB1AF808100029F4D108E0CA
:1025900008F1010188468142FADB1AF80810002987
:1025A000F6D105985B46A0EB080721463846179AF6
:1025B00000F094FA284400EB080507E04DE029E11B
:1025C0000DE01AF8010B5A4617999047B8F1010827
:1025D000F7D25B4621463846179A13E142E00A22B9
:1025E0000092C4F302524FF0000A022A08D059F8B0
:1025F00004CB032A4FEAEC710AD00DE029E02AE06F
:1026000009F1070121F00702F2E802C1914609E051
:102610000FFA8CFC4FEAEC71042A03D14FFA8CFCC0
:102620004FEAEC71002907DA0A460021DCF1000CC0
:1026300061EB02012D2202E0220504D52B228DF848
:102640000420012203E0E20701D02022F7E79046B0
:1026500059E00A2102E010220DE010214FF0000A9B
:1026600000910BE010224FF0000A44F00404082708
:10267000009203E008224FF0000A0092C4F30252D5
:10268000022A05D059F804CB0021032A08D009E01A
:1026900009F1070121F00702F2E802C1914605E0C5
:1026A0001FFA8CFC042A01D10CF0FF0C4FF000083B
:1026B000220728D5702806D0009B83F0100353EA28
:1026C0000A0305D00EE040228DF80420012208E024
:1026D0005CEA010206D030228DF804208DF8050056
:1026E00002229046009B83F0080353EA0A030AD1B2
:1026F0005CEA010201D1620705D530228DF8042081
:102700004FF001087F1E582804D034A003900EA873
:1027100002900DE036A0F9E753466046009AFDF7B7
:102720006DFD84460398825C0298401E0290027000
:102730005CEA0100F0D1029806A9081A00F1200A0B
:10274000600702D524F4803400E00127574502DDFC
:10275000A7EB0A0000E0002000EB0A0100900598BA
:102760004144401A0590E00306D45B462146179A7F
:10277000059800F0B3F90544002706E001A85A4681
:10278000C05D179990476D1C7F1C4745F6DBE00341
:102790000CD55B462146179A059800F09FF9054431
:1027A00004E030205A46179990476D1C0099481E46
:1027B00000900029F5DC08E0029802995A4600785A
:1027C000491C0291179990476D1CBAF10001AAF1BA
:1027D000010AF1DC65E100000928010030313233E3
:1027E000343536373839616263646566000000004D
:1027F0003031323334353637383941424344454637
:102800000000000000F058F90544761C30780028DC
:102810007FF4ECAD19B02846BDE8F08F620700D414
:10282000062709F1070222F0070CFCE80223E14623
:1028300003F000485FEA080C02D00FF2702C0DE0A4
:102840005FEA045C02D50FF2682C07E05FEAC47C03
:1028500002D00FF2602C01E0AFF2700C4FF0FF38A5
:1028600023F00043CDF850C065280CD006DC452885
:1028700009D046281DD047283DD13DE0662818D014
:1028800067287ED138E00021112F01DB112000E004
:10289000781CCDE9000106A90EA8FFF7DDFCDDE9F3
:1028A0000F010E9A03910021009207F1010A049191
:1028B0004DE04FF000400097CDE9011006A90EA8A9
:1028C000FFF7CAFCDDE90F0203920E9B119900226B
:1028D000DDF80CA00093049211B9791C00EB010AF9
:1028E000B7EB0A0004D4C0F1FF3007F1010A0490ED
:1028F000AAEB0700019044E0012F00DA0127002134
:10290000112F01DD112000E03846CDE9000106A9B4
:102910000EA8FFF7A1FCDDE90F010E9A039100213B
:1029200004910092BA4621070CD40399514500DA6C
:102930008A46BAF1010F05DD009AAAF10101515C46
:10294000302908D0B84202DA10F1040F06DA01216A
:10295000CDE9011015E0AAF10101E9E7002805DC45
:10296000049901440491AAEB000102E0411C514585
:1029700000DD8A460499401A401C01904FF0004047
:102980000290200704D40198504501DBCDF8048063
:1029900000208DF84F0002980DF14F07B0F1004F65
:1029A00025D02B200E9002984FF0020800280CDA58
:1029B000404202902D200E9007E00A210298FDF778
:1029C00085FC3031029007F8011DB8F10001A8F133
:1029D0000108F2DC02980028EFD1791E0E980870E9
:1029E000307800F0200040F0450007F8020D12A8F2
:1029F000C01B00F107081498007800B1012000EB1B
:102A00000A01019801EBE07105984144401A401E0B
:102A10000590E00306D45B462146179A059800F01E
:102A20005DF805441498007818B15A4617999047F4
:102A30006D1CE00324D55B462146179A059800F0EB
:102A40004DF805441CE00498002807DBDDE903018C
:102A5000884203DD0098405C179901E01799302007
:102A60005A469047049805F10105401C04900198CE
:102A7000401E019004D12E205A46179990476D1C94
:102A8000BAF10001AAF1010ADDDC05E017F8010B3B
:102A90005A46179990476D1CB8F10001A8F101083A
:102AA000F4DC5B462146179A0598ABE62D00000042
:102AB0002B000000200000002DE9F0410446002515
:102AC0001E461746880404D405E039462020B04746
:102AD0006D1C641EF9D52846BDE8F0812DE9F04152
:102AE000044600251E469046C80301D5302700E065
:102AF0002027880404D505E041463846B0476D1CC0
:102B0000641EF9D52846BDE8F081F0B5038800259C
:102B100041F221070CE04C5D002683EA04235C00AF
:102B20001B0400D57C40761C2346082EF7D36D1C71
:102B30009542F0D30380F0BD38B504460020ADF8CF
:102B40000000A078E178042200EB012085B2214644
:102B50006846FFF7DAFF2A46A11D6846FFF7D5FF52
:102B60002079617900EB0120BDF80010884201D185
:102B7000012038BD002038BD13B53223012269463B
:102B80000248FEF776FD00981CBD00005C000020A6
:102B90001FB5FDF717FFFEF731FFFEF72FFEFEF71B
:102BA000D1FEFEF7EBFEFEF705FF1048FEF7FCFD39
:102BB000DFF83C80FEF702FED8F82C00FDF773FB2F
:102BC00006460F46D8F82800FDF76DFB04460D4673
:102BD000D8F82400FDF767FB8DE8F00041EC100BFE
:102BE00004A053EC102BFFF707FBE3E71C000020C9
:102BF000040500206D61673A2025660925660925D0
:102C0000660D0A000000000000000000010203043D
:102C10000607080900000000010203043C2C00081C
:102C2000000000201C00000038220008582C00087A
:102C30001C000020340900004822000800000000A9
:102C40000000000001000000100000000000000073
:082C50000024F4000000000064
:04000005080001C529
:00000001FF
